{
	"PROJECT/UserRegistry.sol": {
		"UserRegistry": {
			"abi": [
				{
					"anonymous": false,
					"inputs": [
						{
							"indexed": true,
							"internalType": "address",
							"name": "userAddress",
							"type": "address"
						},
						{
							"indexed": false,
							"internalType": "string",
							"name": "name",
							"type": "string"
						},
						{
							"indexed": false,
							"internalType": "enum UserRegistry.UserType",
							"name": "userType",
							"type": "uint8"
						}
					],
					"name": "UserRegistered",
					"type": "event"
				},
				{
					"inputs": [
						{
							"internalType": "address",
							"name": "user",
							"type": "address"
						}
					],
					"name": "getUserType",
					"outputs": [
						{
							"internalType": "enum UserRegistry.UserType",
							"name": "",
							"type": "uint8"
						}
					],
					"stateMutability": "view",
					"type": "function"
				},
				{
					"inputs": [
						{
							"internalType": "address",
							"name": "user",
							"type": "address"
						}
					],
					"name": "isUserRegistered",
					"outputs": [
						{
							"internalType": "bool",
							"name": "",
							"type": "bool"
						}
					],
					"stateMutability": "view",
					"type": "function"
				},
				{
					"inputs": [
						{
							"internalType": "string",
							"name": "name",
							"type": "string"
						},
						{
							"internalType": "uint8",
							"name": "userType",
							"type": "uint8"
						}
					],
					"name": "registerUser",
					"outputs": [],
					"stateMutability": "nonpayable",
					"type": "function"
				},
				{
					"inputs": [
						{
							"internalType": "address",
							"name": "",
							"type": "address"
						}
					],
					"name": "users",
					"outputs": [
						{
							"internalType": "address",
							"name": "userAddress",
							"type": "address"
						},
						{
							"internalType": "string",
							"name": "name",
							"type": "string"
						},
						{
							"internalType": "enum UserRegistry.UserType",
							"name": "userType",
							"type": "uint8"
						},
						{
							"internalType": "bool",
							"name": "isRegistered",
							"type": "bool"
						}
					],
					"stateMutability": "view",
					"type": "function"
				}
			],
			"devdoc": {
				"kind": "dev",
				"methods": {
					"getUserType(address)": {
						"details": "Get user type (Landlord or Renter)"
					},
					"isUserRegistered(address)": {
						"details": "Check if user is registered"
					},
					"registerUser(string,uint8)": {
						"details": "Register a new user as Landlord (1) or Renter (2)"
					}
				},
				"version": 1
			},
			"evm": {
				"assembly": "    /* \"PROJECT/UserRegistry.sol\":61:1425  contract UserRegistry {... */\n  mstore(0x40, 0x80)\n  callvalue\n  dup1\n  iszero\n  tag_1\n  jumpi\n  0x00\n  dup1\n  revert\ntag_1:\n  pop\n  dataSize(sub_0)\n  dup1\n  dataOffset(sub_0)\n  0x00\n  codecopy\n  0x00\n  return\nstop\n\nsub_0: assembly {\n        /* \"PROJECT/UserRegistry.sol\":61:1425  contract UserRegistry {... */\n      mstore(0x40, 0x80)\n      callvalue\n      dup1\n      iszero\n      tag_1\n      jumpi\n      0x00\n      dup1\n      revert\n    tag_1:\n      pop\n      jumpi(tag_2, lt(calldatasize, 0x04))\n      shr(0xe0, calldataload(0x00))\n      dup1\n      0x163f7522\n      eq\n      tag_3\n      jumpi\n      dup1\n      0x338e12eb\n      eq\n      tag_4\n      jumpi\n      dup1\n      0x8b3f863f\n      eq\n      tag_5\n      jumpi\n      dup1\n      0xa87430ba\n      eq\n      tag_6\n      jumpi\n    tag_2:\n      0x00\n      dup1\n      revert\n        /* \"PROJECT/UserRegistry.sol\":1065:1184  function isUserRegistered(address user) external view returns (bool) {... */\n    tag_3:\n      tag_7\n      0x04\n      dup1\n      calldatasize\n      sub\n      dup2\n      add\n      swap1\n      tag_8\n      swap2\n      swap1\n      tag_9\n      jump\t// in\n    tag_8:\n      tag_10\n      jump\t// in\n    tag_7:\n      mload(0x40)\n      tag_11\n      swap2\n      swap1\n      tag_12\n      jump\t// in\n    tag_11:\n      mload(0x40)\n      dup1\n      swap2\n      sub\n      swap1\n      return\n        /* \"PROJECT/UserRegistry.sol\":482:1015  function registerUser(string memory name, uint8 userType) external {... */\n    tag_4:\n      tag_13\n      0x04\n      dup1\n      calldatasize\n      sub\n      dup2\n      add\n      swap1\n      tag_14\n      swap2\n      swap1\n      tag_15\n      jump\t// in\n    tag_14:\n      tag_16\n      jump\t// in\n    tag_13:\n      stop\n        /* \"PROJECT/UserRegistry.sol\":1241:1422  function getUserType(address user) external view returns (UserType) {... */\n    tag_5:\n      tag_17\n      0x04\n      dup1\n      calldatasize\n      sub\n      dup2\n      add\n      swap1\n      tag_18\n      swap2\n      swap1\n      tag_9\n      jump\t// in\n    tag_18:\n      tag_19\n      jump\t// in\n    tag_17:\n      mload(0x40)\n      tag_20\n      swap2\n      swap1\n      tag_21\n      jump\t// in\n    tag_20:\n      mload(0x40)\n      dup1\n      swap2\n      sub\n      swap1\n      return\n        /* \"PROJECT/UserRegistry.sol\":282:319  mapping(address => User) public users */\n    tag_6:\n      tag_22\n      0x04\n      dup1\n      calldatasize\n      sub\n      dup2\n      add\n      swap1\n      tag_23\n      swap2\n      swap1\n      tag_9\n      jump\t// in\n    tag_23:\n      tag_24\n      jump\t// in\n    tag_22:\n      mload(0x40)\n      tag_25\n      swap5\n      swap4\n      swap3\n      swap2\n      swap1\n      tag_26\n      jump\t// in\n    tag_25:\n      mload(0x40)\n      dup1\n      swap2\n      sub\n      swap1\n      return\n        /* \"PROJECT/UserRegistry.sol\":1065:1184  function isUserRegistered(address user) external view returns (bool) {... */\n    tag_10:\n        /* \"PROJECT/UserRegistry.sol\":1128:1132  bool */\n      0x00\n        /* \"PROJECT/UserRegistry.sol\":1152:1157  users */\n      dup1\n        /* \"PROJECT/UserRegistry.sol\":1152:1163  users[user] */\n      0x00\n        /* \"PROJECT/UserRegistry.sol\":1158:1162  user */\n      dup4\n        /* \"PROJECT/UserRegistry.sol\":1152:1163  users[user] */\n      0xffffffffffffffffffffffffffffffffffffffff\n      and\n      0xffffffffffffffffffffffffffffffffffffffff\n      and\n      dup2\n      mstore\n      0x20\n      add\n      swap1\n      dup2\n      mstore\n      0x20\n      add\n      0x00\n      keccak256\n        /* \"PROJECT/UserRegistry.sol\":1152:1176  users[user].isRegistered */\n      0x02\n      add\n      0x01\n      swap1\n      sload\n      swap1\n      0x0100\n      exp\n      swap1\n      div\n      0xff\n      and\n        /* \"PROJECT/UserRegistry.sol\":1145:1176  return users[user].isRegistered */\n      swap1\n      pop\n        /* \"PROJECT/UserRegistry.sol\":1065:1184  function isUserRegistered(address user) external view returns (bool) {... */\n      swap2\n      swap1\n      pop\n      jump\t// out\n        /* \"PROJECT/UserRegistry.sol\":482:1015  function registerUser(string memory name, uint8 userType) external {... */\n    tag_16:\n        /* \"PROJECT/UserRegistry.sol\":579:580  0 */\n      0x00\n        /* \"PROJECT/UserRegistry.sol\":568:576  userType */\n      dup2\n        /* \"PROJECT/UserRegistry.sol\":568:580  userType > 0 */\n      0xff\n      and\n      gt\n        /* \"PROJECT/UserRegistry.sol\":568:597  userType > 0 && userType <= 2 */\n      dup1\n      iszero\n      tag_29\n      jumpi\n      pop\n        /* \"PROJECT/UserRegistry.sol\":596:597  2 */\n      0x02\n        /* \"PROJECT/UserRegistry.sol\":584:592  userType */\n      dup2\n        /* \"PROJECT/UserRegistry.sol\":584:597  userType <= 2 */\n      0xff\n      and\n      gt\n      iszero\n        /* \"PROJECT/UserRegistry.sol\":568:597  userType > 0 && userType <= 2 */\n    tag_29:\n        /* \"PROJECT/UserRegistry.sol\":560:619  require(userType > 0 && userType <= 2, \"Invalid user type\") */\n      tag_30\n      jumpi\n      mload(0x40)\n      0x08c379a000000000000000000000000000000000000000000000000000000000\n      dup2\n      mstore\n      0x04\n      add\n      tag_31\n      swap1\n      tag_32\n      jump\t// in\n    tag_31:\n      mload(0x40)\n      dup1\n      swap2\n      sub\n      swap1\n      revert\n    tag_30:\n        /* \"PROJECT/UserRegistry.sol\":663:668  users */\n      0x00\n        /* \"PROJECT/UserRegistry.sol\":663:680  users[msg.sender] */\n      dup1\n        /* \"PROJECT/UserRegistry.sol\":669:679  msg.sender */\n      caller\n        /* \"PROJECT/UserRegistry.sol\":663:680  users[msg.sender] */\n      0xffffffffffffffffffffffffffffffffffffffff\n      and\n      0xffffffffffffffffffffffffffffffffffffffff\n      and\n      dup2\n      mstore\n      0x20\n      add\n      swap1\n      dup2\n      mstore\n      0x20\n      add\n      0x00\n      keccak256\n        /* \"PROJECT/UserRegistry.sol\":663:693  users[msg.sender].isRegistered */\n      0x02\n      add\n      0x01\n      swap1\n      sload\n      swap1\n      0x0100\n      exp\n      swap1\n      div\n      0xff\n      and\n        /* \"PROJECT/UserRegistry.sol\":662:693  !users[msg.sender].isRegistered */\n      iszero\n        /* \"PROJECT/UserRegistry.sol\":654:721  require(!users[msg.sender].isRegistered, \"User already registered\") */\n      tag_33\n      jumpi\n      mload(0x40)\n      0x08c379a000000000000000000000000000000000000000000000000000000000\n      dup2\n      mstore\n      0x04\n      add\n      tag_34\n      swap1\n      tag_35\n      jump\t// in\n    tag_34:\n      mload(0x40)\n      dup1\n      swap2\n      sub\n      swap1\n      revert\n    tag_33:\n        /* \"PROJECT/UserRegistry.sol\":754:937  User({... */\n      mload(0x40)\n      dup1\n      0x80\n      add\n      0x40\n      mstore\n      dup1\n        /* \"PROJECT/UserRegistry.sol\":787:797  msg.sender */\n      caller\n        /* \"PROJECT/UserRegistry.sol\":754:937  User({... */\n      0xffffffffffffffffffffffffffffffffffffffff\n      and\n      dup2\n      mstore\n      0x20\n      add\n        /* \"PROJECT/UserRegistry.sol\":818:822  name */\n      dup4\n        /* \"PROJECT/UserRegistry.sol\":754:937  User({... */\n      dup2\n      mstore\n      0x20\n      add\n        /* \"PROJECT/UserRegistry.sol\":856:864  userType */\n      dup3\n        /* \"PROJECT/UserRegistry.sol\":847:865  UserType(userType) */\n      0xff\n      and\n      0x02\n      dup2\n      gt\n      iszero\n      tag_36\n      jumpi\n      tag_37\n      tag_38\n      jump\t// in\n    tag_37:\n    tag_36:\n        /* \"PROJECT/UserRegistry.sol\":754:937  User({... */\n      0x02\n      dup2\n      gt\n      iszero\n      tag_39\n      jumpi\n      tag_40\n      tag_38\n      jump\t// in\n    tag_40:\n    tag_39:\n      dup2\n      mstore\n      0x20\n      add\n        /* \"PROJECT/UserRegistry.sol\":921:925  true */\n      0x01\n        /* \"PROJECT/UserRegistry.sol\":754:937  User({... */\n      iszero\n      iszero\n      dup2\n      mstore\n      pop\n        /* \"PROJECT/UserRegistry.sol\":734:739  users */\n      0x00\n        /* \"PROJECT/UserRegistry.sol\":734:751  users[msg.sender] */\n      dup1\n        /* \"PROJECT/UserRegistry.sol\":740:750  msg.sender */\n      caller\n        /* \"PROJECT/UserRegistry.sol\":734:751  users[msg.sender] */\n      0xffffffffffffffffffffffffffffffffffffffff\n      and\n      0xffffffffffffffffffffffffffffffffffffffff\n      and\n      dup2\n      mstore\n      0x20\n      add\n      swap1\n      dup2\n      mstore\n      0x20\n      add\n      0x00\n      keccak256\n        /* \"PROJECT/UserRegistry.sol\":734:937  users[msg.sender] = User({... */\n      0x00\n      dup3\n      add\n      mload\n      dup2\n      0x00\n      add\n      exp(0x0100, 0x00)\n      dup2\n      sload\n      dup2\n      0xffffffffffffffffffffffffffffffffffffffff\n      mul\n      not\n      and\n      swap1\n      dup4\n      0xffffffffffffffffffffffffffffffffffffffff\n      and\n      mul\n      or\n      swap1\n      sstore\n      pop\n      0x20\n      dup3\n      add\n      mload\n      dup2\n      0x01\n      add\n      swap1\n      dup2\n      tag_41\n      swap2\n      swap1\n      tag_42\n      jump\t// in\n    tag_41:\n      pop\n      0x40\n      dup3\n      add\n      mload\n      dup2\n      0x02\n      add\n      exp(0x0100, 0x00)\n      dup2\n      sload\n      dup2\n      0xff\n      mul\n      not\n      and\n      swap1\n      dup4\n      0x02\n      dup2\n      gt\n      iszero\n      tag_43\n      jumpi\n      tag_44\n      tag_38\n      jump\t// in\n    tag_44:\n    tag_43:\n      mul\n      or\n      swap1\n      sstore\n      pop\n      0x60\n      dup3\n      add\n      mload\n      dup2\n      0x02\n      add\n      exp(0x0100, 0x01)\n      dup2\n      sload\n      dup2\n      0xff\n      mul\n      not\n      and\n      swap1\n      dup4\n      iszero\n      iszero\n      mul\n      or\n      swap1\n      sstore\n      pop\n      swap1\n      pop\n      pop\n        /* \"PROJECT/UserRegistry.sol\":970:980  msg.sender */\n      caller\n        /* \"PROJECT/UserRegistry.sol\":955:1007  UserRegistered(msg.sender, name, UserType(userType)) */\n      0xffffffffffffffffffffffffffffffffffffffff\n      and\n      0xc2e5d5da58bd71d1a2d14cdef02a4256d971b728088f8190d067ccfbae3bd73e\n        /* \"PROJECT/UserRegistry.sol\":982:986  name */\n      dup4\n        /* \"PROJECT/UserRegistry.sol\":997:1005  userType */\n      dup4\n        /* \"PROJECT/UserRegistry.sol\":988:1006  UserType(userType) */\n      0xff\n      and\n      0x02\n      dup2\n      gt\n      iszero\n      tag_45\n      jumpi\n      tag_46\n      tag_38\n      jump\t// in\n    tag_46:\n    tag_45:\n        /* \"PROJECT/UserRegistry.sol\":955:1007  UserRegistered(msg.sender, name, UserType(userType)) */\n      mload(0x40)\n      tag_47\n      swap3\n      swap2\n      swap1\n      tag_48\n      jump\t// in\n    tag_47:\n      mload(0x40)\n      dup1\n      swap2\n      sub\n      swap1\n      log2\n        /* \"PROJECT/UserRegistry.sol\":482:1015  function registerUser(string memory name, uint8 userType) external {... */\n      pop\n      pop\n      jump\t// out\n        /* \"PROJECT/UserRegistry.sol\":1241:1422  function getUserType(address user) external view returns (UserType) {... */\n    tag_19:\n        /* \"PROJECT/UserRegistry.sol\":1299:1307  UserType */\n      0x00\n        /* \"PROJECT/UserRegistry.sol\":1328:1333  users */\n      dup1\n        /* \"PROJECT/UserRegistry.sol\":1328:1339  users[user] */\n      0x00\n        /* \"PROJECT/UserRegistry.sol\":1334:1338  user */\n      dup4\n        /* \"PROJECT/UserRegistry.sol\":1328:1339  users[user] */\n      0xffffffffffffffffffffffffffffffffffffffff\n      and\n      0xffffffffffffffffffffffffffffffffffffffff\n      and\n      dup2\n      mstore\n      0x20\n      add\n      swap1\n      dup2\n      mstore\n      0x20\n      add\n      0x00\n      keccak256\n        /* \"PROJECT/UserRegistry.sol\":1328:1352  users[user].isRegistered */\n      0x02\n      add\n      0x01\n      swap1\n      sload\n      swap1\n      0x0100\n      exp\n      swap1\n      div\n      0xff\n      and\n        /* \"PROJECT/UserRegistry.sol\":1320:1376  require(users[user].isRegistered, \"User not registered\") */\n      tag_50\n      jumpi\n      mload(0x40)\n      0x08c379a000000000000000000000000000000000000000000000000000000000\n      dup2\n      mstore\n      0x04\n      add\n      tag_51\n      swap1\n      tag_52\n      jump\t// in\n    tag_51:\n      mload(0x40)\n      dup1\n      swap2\n      sub\n      swap1\n      revert\n    tag_50:\n        /* \"PROJECT/UserRegistry.sol\":1394:1399  users */\n      0x00\n        /* \"PROJECT/UserRegistry.sol\":1394:1405  users[user] */\n      dup1\n        /* \"PROJECT/UserRegistry.sol\":1400:1404  user */\n      dup4\n        /* \"PROJECT/UserRegistry.sol\":1394:1405  users[user] */\n      0xffffffffffffffffffffffffffffffffffffffff\n      and\n      0xffffffffffffffffffffffffffffffffffffffff\n      and\n      dup2\n      mstore\n      0x20\n      add\n      swap1\n      dup2\n      mstore\n      0x20\n      add\n      0x00\n      keccak256\n        /* \"PROJECT/UserRegistry.sol\":1394:1414  users[user].userType */\n      0x02\n      add\n      0x00\n      swap1\n      sload\n      swap1\n      0x0100\n      exp\n      swap1\n      div\n      0xff\n      and\n        /* \"PROJECT/UserRegistry.sol\":1387:1414  return users[user].userType */\n      swap1\n      pop\n        /* \"PROJECT/UserRegistry.sol\":1241:1422  function getUserType(address user) external view returns (UserType) {... */\n      swap2\n      swap1\n      pop\n      jump\t// out\n        /* \"PROJECT/UserRegistry.sol\":282:319  mapping(address => User) public users */\n    tag_24:\n      mstore(0x20, 0x00)\n      dup1\n      0x00\n      mstore\n      keccak256(0x00, 0x40)\n      0x00\n      swap2\n      pop\n      swap1\n      pop\n      dup1\n      0x00\n      add\n      0x00\n      swap1\n      sload\n      swap1\n      0x0100\n      exp\n      swap1\n      div\n      0xffffffffffffffffffffffffffffffffffffffff\n      and\n      swap1\n      dup1\n      0x01\n      add\n      dup1\n      sload\n      tag_53\n      swap1\n      tag_54\n      jump\t// in\n    tag_53:\n      dup1\n      0x1f\n      add\n      0x20\n      dup1\n      swap2\n      div\n      mul\n      0x20\n      add\n      mload(0x40)\n      swap1\n      dup2\n      add\n      0x40\n      mstore\n      dup1\n      swap3\n      swap2\n      swap1\n      dup2\n      dup2\n      mstore\n      0x20\n      add\n      dup3\n      dup1\n      sload\n      tag_55\n      swap1\n      tag_54\n      jump\t// in\n    tag_55:\n      dup1\n      iszero\n      tag_56\n      jumpi\n      dup1\n      0x1f\n      lt\n      tag_57\n      jumpi\n      0x0100\n      dup1\n      dup4\n      sload\n      div\n      mul\n      dup4\n      mstore\n      swap2\n      0x20\n      add\n      swap2\n      jump(tag_56)\n    tag_57:\n      dup3\n      add\n      swap2\n      swap1\n      0x00\n      mstore\n      keccak256(0x00, 0x20)\n      swap1\n    tag_58:\n      dup2\n      sload\n      dup2\n      mstore\n      swap1\n      0x01\n      add\n      swap1\n      0x20\n      add\n      dup1\n      dup4\n      gt\n      tag_58\n      jumpi\n      dup3\n      swap1\n      sub\n      0x1f\n      and\n      dup3\n      add\n      swap2\n    tag_56:\n      pop\n      pop\n      pop\n      pop\n      pop\n      swap1\n      dup1\n      0x02\n      add\n      0x00\n      swap1\n      sload\n      swap1\n      0x0100\n      exp\n      swap1\n      div\n      0xff\n      and\n      swap1\n      dup1\n      0x02\n      add\n      0x01\n      swap1\n      sload\n      swap1\n      0x0100\n      exp\n      swap1\n      div\n      0xff\n      and\n      swap1\n      pop\n      dup5\n      jump\t// out\n        /* \"#utility.yul\":7:82   */\n    tag_59:\n        /* \"#utility.yul\":40:46   */\n      0x00\n        /* \"#utility.yul\":73:75   */\n      0x40\n        /* \"#utility.yul\":67:76   */\n      mload\n        /* \"#utility.yul\":57:76   */\n      swap1\n      pop\n        /* \"#utility.yul\":7:82   */\n      swap1\n      jump\t// out\n        /* \"#utility.yul\":88:205   */\n    tag_60:\n        /* \"#utility.yul\":197:198   */\n      0x00\n        /* \"#utility.yul\":194:195   */\n      dup1\n        /* \"#utility.yul\":187:199   */\n      revert\n        /* \"#utility.yul\":211:328   */\n    tag_61:\n        /* \"#utility.yul\":320:321   */\n      0x00\n        /* \"#utility.yul\":317:318   */\n      dup1\n        /* \"#utility.yul\":310:322   */\n      revert\n        /* \"#utility.yul\":334:460   */\n    tag_62:\n        /* \"#utility.yul\":371:378   */\n      0x00\n        /* \"#utility.yul\":411:453   */\n      0xffffffffffffffffffffffffffffffffffffffff\n        /* \"#utility.yul\":404:409   */\n      dup3\n        /* \"#utility.yul\":400:454   */\n      and\n        /* \"#utility.yul\":389:454   */\n      swap1\n      pop\n        /* \"#utility.yul\":334:460   */\n      swap2\n      swap1\n      pop\n      jump\t// out\n        /* \"#utility.yul\":466:562   */\n    tag_63:\n        /* \"#utility.yul\":503:510   */\n      0x00\n        /* \"#utility.yul\":532:556   */\n      tag_119\n        /* \"#utility.yul\":550:555   */\n      dup3\n        /* \"#utility.yul\":532:556   */\n      tag_62\n      jump\t// in\n    tag_119:\n        /* \"#utility.yul\":521:556   */\n      swap1\n      pop\n        /* \"#utility.yul\":466:562   */\n      swap2\n      swap1\n      pop\n      jump\t// out\n        /* \"#utility.yul\":568:690   */\n    tag_64:\n        /* \"#utility.yul\":641:665   */\n      tag_121\n        /* \"#utility.yul\":659:664   */\n      dup2\n        /* \"#utility.yul\":641:665   */\n      tag_63\n      jump\t// in\n    tag_121:\n        /* \"#utility.yul\":634:639   */\n      dup2\n        /* \"#utility.yul\":631:666   */\n      eq\n        /* \"#utility.yul\":621:684   */\n      tag_122\n      jumpi\n        /* \"#utility.yul\":680:681   */\n      0x00\n        /* \"#utility.yul\":677:678   */\n      dup1\n        /* \"#utility.yul\":670:682   */\n      revert\n        /* \"#utility.yul\":621:684   */\n    tag_122:\n        /* \"#utility.yul\":568:690   */\n      pop\n      jump\t// out\n        /* \"#utility.yul\":696:835   */\n    tag_65:\n        /* \"#utility.yul\":742:747   */\n      0x00\n        /* \"#utility.yul\":780:786   */\n      dup2\n        /* \"#utility.yul\":767:787   */\n      calldataload\n        /* \"#utility.yul\":758:787   */\n      swap1\n      pop\n        /* \"#utility.yul\":796:829   */\n      tag_124\n        /* \"#utility.yul\":823:828   */\n      dup2\n        /* \"#utility.yul\":796:829   */\n      tag_64\n      jump\t// in\n    tag_124:\n        /* \"#utility.yul\":696:835   */\n      swap3\n      swap2\n      pop\n      pop\n      jump\t// out\n        /* \"#utility.yul\":841:1170   */\n    tag_9:\n        /* \"#utility.yul\":900:906   */\n      0x00\n        /* \"#utility.yul\":949:951   */\n      0x20\n        /* \"#utility.yul\":937:946   */\n      dup3\n        /* \"#utility.yul\":928:935   */\n      dup5\n        /* \"#utility.yul\":924:947   */\n      sub\n        /* \"#utility.yul\":920:952   */\n      slt\n        /* \"#utility.yul\":917:1036   */\n      iszero\n      tag_126\n      jumpi\n        /* \"#utility.yul\":955:1034   */\n      tag_127\n      tag_60\n      jump\t// in\n    tag_127:\n        /* \"#utility.yul\":917:1036   */\n    tag_126:\n        /* \"#utility.yul\":1075:1076   */\n      0x00\n        /* \"#utility.yul\":1100:1153   */\n      tag_128\n        /* \"#utility.yul\":1145:1152   */\n      dup5\n        /* \"#utility.yul\":1136:1142   */\n      dup3\n        /* \"#utility.yul\":1125:1134   */\n      dup6\n        /* \"#utility.yul\":1121:1143   */\n      add\n        /* \"#utility.yul\":1100:1153   */\n      tag_65\n      jump\t// in\n    tag_128:\n        /* \"#utility.yul\":1090:1153   */\n      swap2\n      pop\n        /* \"#utility.yul\":1046:1163   */\n      pop\n        /* \"#utility.yul\":841:1170   */\n      swap3\n      swap2\n      pop\n      pop\n      jump\t// out\n        /* \"#utility.yul\":1176:1266   */\n    tag_66:\n        /* \"#utility.yul\":1210:1217   */\n      0x00\n        /* \"#utility.yul\":1253:1258   */\n      dup2\n        /* \"#utility.yul\":1246:1259   */\n      iszero\n        /* \"#utility.yul\":1239:1260   */\n      iszero\n        /* \"#utility.yul\":1228:1260   */\n      swap1\n      pop\n        /* \"#utility.yul\":1176:1266   */\n      swap2\n      swap1\n      pop\n      jump\t// out\n        /* \"#utility.yul\":1272:1381   */\n    tag_67:\n        /* \"#utility.yul\":1353:1374   */\n      tag_131\n        /* \"#utility.yul\":1368:1373   */\n      dup2\n        /* \"#utility.yul\":1353:1374   */\n      tag_66\n      jump\t// in\n    tag_131:\n        /* \"#utility.yul\":1348:1351   */\n      dup3\n        /* \"#utility.yul\":1341:1375   */\n      mstore\n        /* \"#utility.yul\":1272:1381   */\n      pop\n      pop\n      jump\t// out\n        /* \"#utility.yul\":1387:1597   */\n    tag_12:\n        /* \"#utility.yul\":1474:1478   */\n      0x00\n        /* \"#utility.yul\":1512:1514   */\n      0x20\n        /* \"#utility.yul\":1501:1510   */\n      dup3\n        /* \"#utility.yul\":1497:1515   */\n      add\n        /* \"#utility.yul\":1489:1515   */\n      swap1\n      pop\n        /* \"#utility.yul\":1525:1590   */\n      tag_133\n        /* \"#utility.yul\":1587:1588   */\n      0x00\n        /* \"#utility.yul\":1576:1585   */\n      dup4\n        /* \"#utility.yul\":1572:1589   */\n      add\n        /* \"#utility.yul\":1563:1569   */\n      dup5\n        /* \"#utility.yul\":1525:1590   */\n      tag_67\n      jump\t// in\n    tag_133:\n        /* \"#utility.yul\":1387:1597   */\n      swap3\n      swap2\n      pop\n      pop\n      jump\t// out\n        /* \"#utility.yul\":1603:1720   */\n    tag_68:\n        /* \"#utility.yul\":1712:1713   */\n      0x00\n        /* \"#utility.yul\":1709:1710   */\n      dup1\n        /* \"#utility.yul\":1702:1714   */\n      revert\n        /* \"#utility.yul\":1726:1843   */\n    tag_69:\n        /* \"#utility.yul\":1835:1836   */\n      0x00\n        /* \"#utility.yul\":1832:1833   */\n      dup1\n        /* \"#utility.yul\":1825:1837   */\n      revert\n        /* \"#utility.yul\":1849:1951   */\n    tag_70:\n        /* \"#utility.yul\":1890:1896   */\n      0x00\n        /* \"#utility.yul\":1941:1943   */\n      0x1f\n        /* \"#utility.yul\":1937:1944   */\n      not\n        /* \"#utility.yul\":1932:1934   */\n      0x1f\n        /* \"#utility.yul\":1925:1930   */\n      dup4\n        /* \"#utility.yul\":1921:1935   */\n      add\n        /* \"#utility.yul\":1917:1945   */\n      and\n        /* \"#utility.yul\":1907:1945   */\n      swap1\n      pop\n        /* \"#utility.yul\":1849:1951   */\n      swap2\n      swap1\n      pop\n      jump\t// out\n        /* \"#utility.yul\":1957:2137   */\n    tag_71:\n        /* \"#utility.yul\":2005:2082   */\n      0x4e487b7100000000000000000000000000000000000000000000000000000000\n        /* \"#utility.yul\":2002:2003   */\n      0x00\n        /* \"#utility.yul\":1995:2083   */\n      mstore\n        /* \"#utility.yul\":2102:2106   */\n      0x41\n        /* \"#utility.yul\":2099:2100   */\n      0x04\n        /* \"#utility.yul\":2092:2107   */\n      mstore\n        /* \"#utility.yul\":2126:2130   */\n      0x24\n        /* \"#utility.yul\":2123:2124   */\n      0x00\n        /* \"#utility.yul\":2116:2131   */\n      revert\n        /* \"#utility.yul\":2143:2424   */\n    tag_72:\n        /* \"#utility.yul\":2226:2253   */\n      tag_139\n        /* \"#utility.yul\":2248:2252   */\n      dup3\n        /* \"#utility.yul\":2226:2253   */\n      tag_70\n      jump\t// in\n    tag_139:\n        /* \"#utility.yul\":2218:2224   */\n      dup2\n        /* \"#utility.yul\":2214:2254   */\n      add\n        /* \"#utility.yul\":2356:2362   */\n      dup2\n        /* \"#utility.yul\":2344:2354   */\n      dup2\n        /* \"#utility.yul\":2341:2363   */\n      lt\n        /* \"#utility.yul\":2320:2338   */\n      0xffffffffffffffff\n        /* \"#utility.yul\":2308:2318   */\n      dup3\n        /* \"#utility.yul\":2305:2339   */\n      gt\n        /* \"#utility.yul\":2302:2364   */\n      or\n        /* \"#utility.yul\":2299:2387   */\n      iszero\n      tag_140\n      jumpi\n        /* \"#utility.yul\":2367:2385   */\n      tag_141\n      tag_71\n      jump\t// in\n    tag_141:\n        /* \"#utility.yul\":2299:2387   */\n    tag_140:\n        /* \"#utility.yul\":2407:2417   */\n      dup1\n        /* \"#utility.yul\":2403:2405   */\n      0x40\n        /* \"#utility.yul\":2396:2418   */\n      mstore\n        /* \"#utility.yul\":2186:2424   */\n      pop\n        /* \"#utility.yul\":2143:2424   */\n      pop\n      pop\n      jump\t// out\n        /* \"#utility.yul\":2430:2559   */\n    tag_73:\n        /* \"#utility.yul\":2464:2470   */\n      0x00\n        /* \"#utility.yul\":2491:2511   */\n      tag_143\n      tag_59\n      jump\t// in\n    tag_143:\n        /* \"#utility.yul\":2481:2511   */\n      swap1\n      pop\n        /* \"#utility.yul\":2520:2553   */\n      tag_144\n        /* \"#utility.yul\":2548:2552   */\n      dup3\n        /* \"#utility.yul\":2540:2546   */\n      dup3\n        /* \"#utility.yul\":2520:2553   */\n      tag_72\n      jump\t// in\n    tag_144:\n        /* \"#utility.yul\":2430:2559   */\n      swap2\n      swap1\n      pop\n      jump\t// out\n        /* \"#utility.yul\":2565:2873   */\n    tag_74:\n        /* \"#utility.yul\":2627:2631   */\n      0x00\n        /* \"#utility.yul\":2717:2735   */\n      0xffffffffffffffff\n        /* \"#utility.yul\":2709:2715   */\n      dup3\n        /* \"#utility.yul\":2706:2736   */\n      gt\n        /* \"#utility.yul\":2703:2759   */\n      iszero\n      tag_146\n      jumpi\n        /* \"#utility.yul\":2739:2757   */\n      tag_147\n      tag_71\n      jump\t// in\n    tag_147:\n        /* \"#utility.yul\":2703:2759   */\n    tag_146:\n        /* \"#utility.yul\":2777:2806   */\n      tag_148\n        /* \"#utility.yul\":2799:2805   */\n      dup3\n        /* \"#utility.yul\":2777:2806   */\n      tag_70\n      jump\t// in\n    tag_148:\n        /* \"#utility.yul\":2769:2806   */\n      swap1\n      pop\n        /* \"#utility.yul\":2861:2865   */\n      0x20\n        /* \"#utility.yul\":2855:2859   */\n      dup2\n        /* \"#utility.yul\":2851:2866   */\n      add\n        /* \"#utility.yul\":2843:2866   */\n      swap1\n      pop\n        /* \"#utility.yul\":2565:2873   */\n      swap2\n      swap1\n      pop\n      jump\t// out\n        /* \"#utility.yul\":2879:3027   */\n    tag_75:\n        /* \"#utility.yul\":2977:2983   */\n      dup3\n        /* \"#utility.yul\":2972:2975   */\n      dup2\n        /* \"#utility.yul\":2967:2970   */\n      dup4\n        /* \"#utility.yul\":2954:2984   */\n      calldatacopy\n        /* \"#utility.yul\":3018:3019   */\n      0x00\n        /* \"#utility.yul\":3009:3015   */\n      dup4\n        /* \"#utility.yul\":3004:3007   */\n      dup4\n        /* \"#utility.yul\":3000:3016   */\n      add\n        /* \"#utility.yul\":2993:3020   */\n      mstore\n        /* \"#utility.yul\":2879:3027   */\n      pop\n      pop\n      pop\n      jump\t// out\n        /* \"#utility.yul\":3033:3458   */\n    tag_76:\n        /* \"#utility.yul\":3111:3116   */\n      0x00\n        /* \"#utility.yul\":3136:3202   */\n      tag_151\n        /* \"#utility.yul\":3152:3201   */\n      tag_152\n        /* \"#utility.yul\":3194:3200   */\n      dup5\n        /* \"#utility.yul\":3152:3201   */\n      tag_74\n      jump\t// in\n    tag_152:\n        /* \"#utility.yul\":3136:3202   */\n      tag_73\n      jump\t// in\n    tag_151:\n        /* \"#utility.yul\":3127:3202   */\n      swap1\n      pop\n        /* \"#utility.yul\":3225:3231   */\n      dup3\n        /* \"#utility.yul\":3218:3223   */\n      dup2\n        /* \"#utility.yul\":3211:3232   */\n      mstore\n        /* \"#utility.yul\":3263:3267   */\n      0x20\n        /* \"#utility.yul\":3256:3261   */\n      dup2\n        /* \"#utility.yul\":3252:3268   */\n      add\n        /* \"#utility.yul\":3301:3304   */\n      dup5\n        /* \"#utility.yul\":3292:3298   */\n      dup5\n        /* \"#utility.yul\":3287:3290   */\n      dup5\n        /* \"#utility.yul\":3283:3299   */\n      add\n        /* \"#utility.yul\":3280:3305   */\n      gt\n        /* \"#utility.yul\":3277:3389   */\n      iszero\n      tag_153\n      jumpi\n        /* \"#utility.yul\":3308:3387   */\n      tag_154\n      tag_69\n      jump\t// in\n    tag_154:\n        /* \"#utility.yul\":3277:3389   */\n    tag_153:\n        /* \"#utility.yul\":3398:3452   */\n      tag_155\n        /* \"#utility.yul\":3445:3451   */\n      dup5\n        /* \"#utility.yul\":3440:3443   */\n      dup3\n        /* \"#utility.yul\":3435:3438   */\n      dup6\n        /* \"#utility.yul\":3398:3452   */\n      tag_75\n      jump\t// in\n    tag_155:\n        /* \"#utility.yul\":3117:3458   */\n      pop\n        /* \"#utility.yul\":3033:3458   */\n      swap4\n      swap3\n      pop\n      pop\n      pop\n      jump\t// out\n        /* \"#utility.yul\":3478:3818   */\n    tag_77:\n        /* \"#utility.yul\":3534:3539   */\n      0x00\n        /* \"#utility.yul\":3583:3586   */\n      dup3\n        /* \"#utility.yul\":3576:3580   */\n      0x1f\n        /* \"#utility.yul\":3568:3574   */\n      dup4\n        /* \"#utility.yul\":3564:3581   */\n      add\n        /* \"#utility.yul\":3560:3587   */\n      slt\n        /* \"#utility.yul\":3550:3672   */\n      tag_157\n      jumpi\n        /* \"#utility.yul\":3591:3670   */\n      tag_158\n      tag_68\n      jump\t// in\n    tag_158:\n        /* \"#utility.yul\":3550:3672   */\n    tag_157:\n        /* \"#utility.yul\":3708:3714   */\n      dup2\n        /* \"#utility.yul\":3695:3715   */\n      calldataload\n        /* \"#utility.yul\":3733:3812   */\n      tag_159\n        /* \"#utility.yul\":3808:3811   */\n      dup5\n        /* \"#utility.yul\":3800:3806   */\n      dup3\n        /* \"#utility.yul\":3793:3797   */\n      0x20\n        /* \"#utility.yul\":3785:3791   */\n      dup7\n        /* \"#utility.yul\":3781:3798   */\n      add\n        /* \"#utility.yul\":3733:3812   */\n      tag_76\n      jump\t// in\n    tag_159:\n        /* \"#utility.yul\":3724:3812   */\n      swap2\n      pop\n        /* \"#utility.yul\":3540:3818   */\n      pop\n        /* \"#utility.yul\":3478:3818   */\n      swap3\n      swap2\n      pop\n      pop\n      jump\t// out\n        /* \"#utility.yul\":3824:3910   */\n    tag_78:\n        /* \"#utility.yul\":3859:3866   */\n      0x00\n        /* \"#utility.yul\":3899:3903   */\n      0xff\n        /* \"#utility.yul\":3892:3897   */\n      dup3\n        /* \"#utility.yul\":3888:3904   */\n      and\n        /* \"#utility.yul\":3877:3904   */\n      swap1\n      pop\n        /* \"#utility.yul\":3824:3910   */\n      swap2\n      swap1\n      pop\n      jump\t// out\n        /* \"#utility.yul\":3916:4034   */\n    tag_79:\n        /* \"#utility.yul\":3987:4009   */\n      tag_162\n        /* \"#utility.yul\":4003:4008   */\n      dup2\n        /* \"#utility.yul\":3987:4009   */\n      tag_78\n      jump\t// in\n    tag_162:\n        /* \"#utility.yul\":3980:3985   */\n      dup2\n        /* \"#utility.yul\":3977:4010   */\n      eq\n        /* \"#utility.yul\":3967:4028   */\n      tag_163\n      jumpi\n        /* \"#utility.yul\":4024:4025   */\n      0x00\n        /* \"#utility.yul\":4021:4022   */\n      dup1\n        /* \"#utility.yul\":4014:4026   */\n      revert\n        /* \"#utility.yul\":3967:4028   */\n    tag_163:\n        /* \"#utility.yul\":3916:4034   */\n      pop\n      jump\t// out\n        /* \"#utility.yul\":4040:4175   */\n    tag_80:\n        /* \"#utility.yul\":4084:4089   */\n      0x00\n        /* \"#utility.yul\":4122:4128   */\n      dup2\n        /* \"#utility.yul\":4109:4129   */\n      calldataload\n        /* \"#utility.yul\":4100:4129   */\n      swap1\n      pop\n        /* \"#utility.yul\":4138:4169   */\n      tag_165\n        /* \"#utility.yul\":4163:4168   */\n      dup2\n        /* \"#utility.yul\":4138:4169   */\n      tag_79\n      jump\t// in\n    tag_165:\n        /* \"#utility.yul\":4040:4175   */\n      swap3\n      swap2\n      pop\n      pop\n      jump\t// out\n        /* \"#utility.yul\":4181:4831   */\n    tag_15:\n        /* \"#utility.yul\":4257:4263   */\n      0x00\n        /* \"#utility.yul\":4265:4271   */\n      dup1\n        /* \"#utility.yul\":4314:4316   */\n      0x40\n        /* \"#utility.yul\":4302:4311   */\n      dup4\n        /* \"#utility.yul\":4293:4300   */\n      dup6\n        /* \"#utility.yul\":4289:4312   */\n      sub\n        /* \"#utility.yul\":4285:4317   */\n      slt\n        /* \"#utility.yul\":4282:4401   */\n      iszero\n      tag_167\n      jumpi\n        /* \"#utility.yul\":4320:4399   */\n      tag_168\n      tag_60\n      jump\t// in\n    tag_168:\n        /* \"#utility.yul\":4282:4401   */\n    tag_167:\n        /* \"#utility.yul\":4468:4469   */\n      0x00\n        /* \"#utility.yul\":4457:4466   */\n      dup4\n        /* \"#utility.yul\":4453:4470   */\n      add\n        /* \"#utility.yul\":4440:4471   */\n      calldataload\n        /* \"#utility.yul\":4498:4516   */\n      0xffffffffffffffff\n        /* \"#utility.yul\":4490:4496   */\n      dup2\n        /* \"#utility.yul\":4487:4517   */\n      gt\n        /* \"#utility.yul\":4484:4601   */\n      iszero\n      tag_169\n      jumpi\n        /* \"#utility.yul\":4520:4599   */\n      tag_170\n      tag_61\n      jump\t// in\n    tag_170:\n        /* \"#utility.yul\":4484:4601   */\n    tag_169:\n        /* \"#utility.yul\":4625:4688   */\n      tag_171\n        /* \"#utility.yul\":4680:4687   */\n      dup6\n        /* \"#utility.yul\":4671:4677   */\n      dup3\n        /* \"#utility.yul\":4660:4669   */\n      dup7\n        /* \"#utility.yul\":4656:4678   */\n      add\n        /* \"#utility.yul\":4625:4688   */\n      tag_77\n      jump\t// in\n    tag_171:\n        /* \"#utility.yul\":4615:4688   */\n      swap3\n      pop\n        /* \"#utility.yul\":4411:4698   */\n      pop\n        /* \"#utility.yul\":4737:4739   */\n      0x20\n        /* \"#utility.yul\":4763:4814   */\n      tag_172\n        /* \"#utility.yul\":4806:4813   */\n      dup6\n        /* \"#utility.yul\":4797:4803   */\n      dup3\n        /* \"#utility.yul\":4786:4795   */\n      dup7\n        /* \"#utility.yul\":4782:4804   */\n      add\n        /* \"#utility.yul\":4763:4814   */\n      tag_80\n      jump\t// in\n    tag_172:\n        /* \"#utility.yul\":4753:4814   */\n      swap2\n      pop\n        /* \"#utility.yul\":4708:4824   */\n      pop\n        /* \"#utility.yul\":4181:4831   */\n      swap3\n      pop\n      swap3\n      swap1\n      pop\n      jump\t// out\n        /* \"#utility.yul\":4837:5017   */\n    tag_38:\n        /* \"#utility.yul\":4885:4962   */\n      0x4e487b7100000000000000000000000000000000000000000000000000000000\n        /* \"#utility.yul\":4882:4883   */\n      0x00\n        /* \"#utility.yul\":4875:4963   */\n      mstore\n        /* \"#utility.yul\":4982:4986   */\n      0x21\n        /* \"#utility.yul\":4979:4980   */\n      0x04\n        /* \"#utility.yul\":4972:4987   */\n      mstore\n        /* \"#utility.yul\":5006:5010   */\n      0x24\n        /* \"#utility.yul\":5003:5004   */\n      0x00\n        /* \"#utility.yul\":4996:5011   */\n      revert\n        /* \"#utility.yul\":5023:5138   */\n    tag_81:\n        /* \"#utility.yul\":5106:5107   */\n      0x03\n        /* \"#utility.yul\":5099:5104   */\n      dup2\n        /* \"#utility.yul\":5096:5108   */\n      lt\n        /* \"#utility.yul\":5086:5132   */\n      tag_175\n      jumpi\n        /* \"#utility.yul\":5112:5130   */\n      tag_176\n      tag_38\n      jump\t// in\n    tag_176:\n        /* \"#utility.yul\":5086:5132   */\n    tag_175:\n        /* \"#utility.yul\":5023:5138   */\n      pop\n      jump\t// out\n        /* \"#utility.yul\":5144:5275   */\n    tag_82:\n        /* \"#utility.yul\":5191:5198   */\n      0x00\n        /* \"#utility.yul\":5220:5225   */\n      dup2\n        /* \"#utility.yul\":5209:5225   */\n      swap1\n      pop\n        /* \"#utility.yul\":5226:5269   */\n      tag_178\n        /* \"#utility.yul\":5263:5268   */\n      dup3\n        /* \"#utility.yul\":5226:5269   */\n      tag_81\n      jump\t// in\n    tag_178:\n        /* \"#utility.yul\":5144:5275   */\n      swap2\n      swap1\n      pop\n      jump\t// out\n        /* \"#utility.yul\":5281:5412   */\n    tag_83:\n        /* \"#utility.yul\":5339:5348   */\n      0x00\n        /* \"#utility.yul\":5372:5406   */\n      tag_180\n        /* \"#utility.yul\":5400:5405   */\n      dup3\n        /* \"#utility.yul\":5372:5406   */\n      tag_82\n      jump\t// in\n    tag_180:\n        /* \"#utility.yul\":5359:5406   */\n      swap1\n      pop\n        /* \"#utility.yul\":5281:5412   */\n      swap2\n      swap1\n      pop\n      jump\t// out\n        /* \"#utility.yul\":5418:5565   */\n    tag_84:\n        /* \"#utility.yul\":5513:5558   */\n      tag_182\n        /* \"#utility.yul\":5552:5557   */\n      dup2\n        /* \"#utility.yul\":5513:5558   */\n      tag_83\n      jump\t// in\n    tag_182:\n        /* \"#utility.yul\":5508:5511   */\n      dup3\n        /* \"#utility.yul\":5501:5559   */\n      mstore\n        /* \"#utility.yul\":5418:5565   */\n      pop\n      pop\n      jump\t// out\n        /* \"#utility.yul\":5571:5809   */\n    tag_21:\n        /* \"#utility.yul\":5672:5676   */\n      0x00\n        /* \"#utility.yul\":5710:5712   */\n      0x20\n        /* \"#utility.yul\":5699:5708   */\n      dup3\n        /* \"#utility.yul\":5695:5713   */\n      add\n        /* \"#utility.yul\":5687:5713   */\n      swap1\n      pop\n        /* \"#utility.yul\":5723:5802   */\n      tag_184\n        /* \"#utility.yul\":5799:5800   */\n      0x00\n        /* \"#utility.yul\":5788:5797   */\n      dup4\n        /* \"#utility.yul\":5784:5801   */\n      add\n        /* \"#utility.yul\":5775:5781   */\n      dup5\n        /* \"#utility.yul\":5723:5802   */\n      tag_84\n      jump\t// in\n    tag_184:\n        /* \"#utility.yul\":5571:5809   */\n      swap3\n      swap2\n      pop\n      pop\n      jump\t// out\n        /* \"#utility.yul\":5815:5933   */\n    tag_85:\n        /* \"#utility.yul\":5902:5926   */\n      tag_186\n        /* \"#utility.yul\":5920:5925   */\n      dup2\n        /* \"#utility.yul\":5902:5926   */\n      tag_63\n      jump\t// in\n    tag_186:\n        /* \"#utility.yul\":5897:5900   */\n      dup3\n        /* \"#utility.yul\":5890:5927   */\n      mstore\n        /* \"#utility.yul\":5815:5933   */\n      pop\n      pop\n      jump\t// out\n        /* \"#utility.yul\":5939:6038   */\n    tag_86:\n        /* \"#utility.yul\":5991:5997   */\n      0x00\n        /* \"#utility.yul\":6025:6030   */\n      dup2\n        /* \"#utility.yul\":6019:6031   */\n      mload\n        /* \"#utility.yul\":6009:6031   */\n      swap1\n      pop\n        /* \"#utility.yul\":5939:6038   */\n      swap2\n      swap1\n      pop\n      jump\t// out\n        /* \"#utility.yul\":6044:6213   */\n    tag_87:\n        /* \"#utility.yul\":6128:6139   */\n      0x00\n        /* \"#utility.yul\":6162:6168   */\n      dup3\n        /* \"#utility.yul\":6157:6160   */\n      dup3\n        /* \"#utility.yul\":6150:6169   */\n      mstore\n        /* \"#utility.yul\":6202:6206   */\n      0x20\n        /* \"#utility.yul\":6197:6200   */\n      dup3\n        /* \"#utility.yul\":6193:6207   */\n      add\n        /* \"#utility.yul\":6178:6207   */\n      swap1\n      pop\n        /* \"#utility.yul\":6044:6213   */\n      swap3\n      swap2\n      pop\n      pop\n      jump\t// out\n        /* \"#utility.yul\":6219:6358   */\n    tag_88:\n        /* \"#utility.yul\":6308:6314   */\n      dup3\n        /* \"#utility.yul\":6303:6306   */\n      dup2\n        /* \"#utility.yul\":6298:6301   */\n      dup4\n        /* \"#utility.yul\":6292:6315   */\n      mcopy\n        /* \"#utility.yul\":6349:6350   */\n      0x00\n        /* \"#utility.yul\":6340:6346   */\n      dup4\n        /* \"#utility.yul\":6335:6338   */\n      dup4\n        /* \"#utility.yul\":6331:6347   */\n      add\n        /* \"#utility.yul\":6324:6351   */\n      mstore\n        /* \"#utility.yul\":6219:6358   */\n      pop\n      pop\n      pop\n      jump\t// out\n        /* \"#utility.yul\":6364:6741   */\n    tag_89:\n        /* \"#utility.yul\":6452:6455   */\n      0x00\n        /* \"#utility.yul\":6480:6519   */\n      tag_191\n        /* \"#utility.yul\":6513:6518   */\n      dup3\n        /* \"#utility.yul\":6480:6519   */\n      tag_86\n      jump\t// in\n    tag_191:\n        /* \"#utility.yul\":6535:6606   */\n      tag_192\n        /* \"#utility.yul\":6599:6605   */\n      dup2\n        /* \"#utility.yul\":6594:6597   */\n      dup6\n        /* \"#utility.yul\":6535:6606   */\n      tag_87\n      jump\t// in\n    tag_192:\n        /* \"#utility.yul\":6528:6606   */\n      swap4\n      pop\n        /* \"#utility.yul\":6615:6680   */\n      tag_193\n        /* \"#utility.yul\":6673:6679   */\n      dup2\n        /* \"#utility.yul\":6668:6671   */\n      dup6\n        /* \"#utility.yul\":6661:6665   */\n      0x20\n        /* \"#utility.yul\":6654:6659   */\n      dup7\n        /* \"#utility.yul\":6650:6666   */\n      add\n        /* \"#utility.yul\":6615:6680   */\n      tag_88\n      jump\t// in\n    tag_193:\n        /* \"#utility.yul\":6705:6734   */\n      tag_194\n        /* \"#utility.yul\":6727:6733   */\n      dup2\n        /* \"#utility.yul\":6705:6734   */\n      tag_70\n      jump\t// in\n    tag_194:\n        /* \"#utility.yul\":6700:6703   */\n      dup5\n        /* \"#utility.yul\":6696:6735   */\n      add\n        /* \"#utility.yul\":6689:6735   */\n      swap2\n      pop\n        /* \"#utility.yul\":6456:6741   */\n      pop\n        /* \"#utility.yul\":6364:6741   */\n      swap3\n      swap2\n      pop\n      pop\n      jump\t// out\n        /* \"#utility.yul\":6747:7395   */\n    tag_26:\n        /* \"#utility.yul\":6946:6950   */\n      0x00\n        /* \"#utility.yul\":6984:6987   */\n      0x80\n        /* \"#utility.yul\":6973:6982   */\n      dup3\n        /* \"#utility.yul\":6969:6988   */\n      add\n        /* \"#utility.yul\":6961:6988   */\n      swap1\n      pop\n        /* \"#utility.yul\":6998:7069   */\n      tag_196\n        /* \"#utility.yul\":7066:7067   */\n      0x00\n        /* \"#utility.yul\":7055:7064   */\n      dup4\n        /* \"#utility.yul\":7051:7068   */\n      add\n        /* \"#utility.yul\":7042:7048   */\n      dup8\n        /* \"#utility.yul\":6998:7069   */\n      tag_85\n      jump\t// in\n    tag_196:\n        /* \"#utility.yul\":7116:7125   */\n      dup2\n        /* \"#utility.yul\":7110:7114   */\n      dup2\n        /* \"#utility.yul\":7106:7126   */\n      sub\n        /* \"#utility.yul\":7101:7103   */\n      0x20\n        /* \"#utility.yul\":7090:7099   */\n      dup4\n        /* \"#utility.yul\":7086:7104   */\n      add\n        /* \"#utility.yul\":7079:7127   */\n      mstore\n        /* \"#utility.yul\":7144:7222   */\n      tag_197\n        /* \"#utility.yul\":7217:7221   */\n      dup2\n        /* \"#utility.yul\":7208:7214   */\n      dup7\n        /* \"#utility.yul\":7144:7222   */\n      tag_89\n      jump\t// in\n    tag_197:\n        /* \"#utility.yul\":7136:7222   */\n      swap1\n      pop\n        /* \"#utility.yul\":7232:7312   */\n      tag_198\n        /* \"#utility.yul\":7308:7310   */\n      0x40\n        /* \"#utility.yul\":7297:7306   */\n      dup4\n        /* \"#utility.yul\":7293:7311   */\n      add\n        /* \"#utility.yul\":7284:7290   */\n      dup6\n        /* \"#utility.yul\":7232:7312   */\n      tag_84\n      jump\t// in\n    tag_198:\n        /* \"#utility.yul\":7322:7388   */\n      tag_199\n        /* \"#utility.yul\":7384:7386   */\n      0x60\n        /* \"#utility.yul\":7373:7382   */\n      dup4\n        /* \"#utility.yul\":7369:7387   */\n      add\n        /* \"#utility.yul\":7360:7366   */\n      dup5\n        /* \"#utility.yul\":7322:7388   */\n      tag_67\n      jump\t// in\n    tag_199:\n        /* \"#utility.yul\":6747:7395   */\n      swap6\n      swap5\n      pop\n      pop\n      pop\n      pop\n      pop\n      jump\t// out\n        /* \"#utility.yul\":7401:7568   */\n    tag_90:\n        /* \"#utility.yul\":7541:7560   */\n      0x496e76616c696420757365722074797065000000000000000000000000000000\n        /* \"#utility.yul\":7537:7538   */\n      0x00\n        /* \"#utility.yul\":7529:7535   */\n      dup3\n        /* \"#utility.yul\":7525:7539   */\n      add\n        /* \"#utility.yul\":7518:7561   */\n      mstore\n        /* \"#utility.yul\":7401:7568   */\n      pop\n      jump\t// out\n        /* \"#utility.yul\":7574:7940   */\n    tag_91:\n        /* \"#utility.yul\":7716:7719   */\n      0x00\n        /* \"#utility.yul\":7737:7804   */\n      tag_202\n        /* \"#utility.yul\":7801:7803   */\n      0x11\n        /* \"#utility.yul\":7796:7799   */\n      dup4\n        /* \"#utility.yul\":7737:7804   */\n      tag_87\n      jump\t// in\n    tag_202:\n        /* \"#utility.yul\":7730:7804   */\n      swap2\n      pop\n        /* \"#utility.yul\":7813:7906   */\n      tag_203\n        /* \"#utility.yul\":7902:7905   */\n      dup3\n        /* \"#utility.yul\":7813:7906   */\n      tag_90\n      jump\t// in\n    tag_203:\n        /* \"#utility.yul\":7931:7933   */\n      0x20\n        /* \"#utility.yul\":7926:7929   */\n      dup3\n        /* \"#utility.yul\":7922:7934   */\n      add\n        /* \"#utility.yul\":7915:7934   */\n      swap1\n      pop\n        /* \"#utility.yul\":7574:7940   */\n      swap2\n      swap1\n      pop\n      jump\t// out\n        /* \"#utility.yul\":7946:8365   */\n    tag_32:\n        /* \"#utility.yul\":8112:8116   */\n      0x00\n        /* \"#utility.yul\":8150:8152   */\n      0x20\n        /* \"#utility.yul\":8139:8148   */\n      dup3\n        /* \"#utility.yul\":8135:8153   */\n      add\n        /* \"#utility.yul\":8127:8153   */\n      swap1\n      pop\n        /* \"#utility.yul\":8199:8208   */\n      dup2\n        /* \"#utility.yul\":8193:8197   */\n      dup2\n        /* \"#utility.yul\":8189:8209   */\n      sub\n        /* \"#utility.yul\":8185:8186   */\n      0x00\n        /* \"#utility.yul\":8174:8183   */\n      dup4\n        /* \"#utility.yul\":8170:8187   */\n      add\n        /* \"#utility.yul\":8163:8210   */\n      mstore\n        /* \"#utility.yul\":8227:8358   */\n      tag_205\n        /* \"#utility.yul\":8353:8357   */\n      dup2\n        /* \"#utility.yul\":8227:8358   */\n      tag_91\n      jump\t// in\n    tag_205:\n        /* \"#utility.yul\":8219:8358   */\n      swap1\n      pop\n        /* \"#utility.yul\":7946:8365   */\n      swap2\n      swap1\n      pop\n      jump\t// out\n        /* \"#utility.yul\":8371:8544   */\n    tag_92:\n        /* \"#utility.yul\":8511:8536   */\n      0x5573657220616c72656164792072656769737465726564000000000000000000\n        /* \"#utility.yul\":8507:8508   */\n      0x00\n        /* \"#utility.yul\":8499:8505   */\n      dup3\n        /* \"#utility.yul\":8495:8509   */\n      add\n        /* \"#utility.yul\":8488:8537   */\n      mstore\n        /* \"#utility.yul\":8371:8544   */\n      pop\n      jump\t// out\n        /* \"#utility.yul\":8550:8916   */\n    tag_93:\n        /* \"#utility.yul\":8692:8695   */\n      0x00\n        /* \"#utility.yul\":8713:8780   */\n      tag_208\n        /* \"#utility.yul\":8777:8779   */\n      0x17\n        /* \"#utility.yul\":8772:8775   */\n      dup4\n        /* \"#utility.yul\":8713:8780   */\n      tag_87\n      jump\t// in\n    tag_208:\n        /* \"#utility.yul\":8706:8780   */\n      swap2\n      pop\n        /* \"#utility.yul\":8789:8882   */\n      tag_209\n        /* \"#utility.yul\":8878:8881   */\n      dup3\n        /* \"#utility.yul\":8789:8882   */\n      tag_92\n      jump\t// in\n    tag_209:\n        /* \"#utility.yul\":8907:8909   */\n      0x20\n        /* \"#utility.yul\":8902:8905   */\n      dup3\n        /* \"#utility.yul\":8898:8910   */\n      add\n        /* \"#utility.yul\":8891:8910   */\n      swap1\n      pop\n        /* \"#utility.yul\":8550:8916   */\n      swap2\n      swap1\n      pop\n      jump\t// out\n        /* \"#utility.yul\":8922:9341   */\n    tag_35:\n        /* \"#utility.yul\":9088:9092   */\n      0x00\n        /* \"#utility.yul\":9126:9128   */\n      0x20\n        /* \"#utility.yul\":9115:9124   */\n      dup3\n        /* \"#utility.yul\":9111:9129   */\n      add\n        /* \"#utility.yul\":9103:9129   */\n      swap1\n      pop\n        /* \"#utility.yul\":9175:9184   */\n      dup2\n        /* \"#utility.yul\":9169:9173   */\n      dup2\n        /* \"#utility.yul\":9165:9185   */\n      sub\n        /* \"#utility.yul\":9161:9162   */\n      0x00\n        /* \"#utility.yul\":9150:9159   */\n      dup4\n        /* \"#utility.yul\":9146:9163   */\n      add\n        /* \"#utility.yul\":9139:9186   */\n      mstore\n        /* \"#utility.yul\":9203:9334   */\n      tag_211\n        /* \"#utility.yul\":9329:9333   */\n      dup2\n        /* \"#utility.yul\":9203:9334   */\n      tag_93\n      jump\t// in\n    tag_211:\n        /* \"#utility.yul\":9195:9334   */\n      swap1\n      pop\n        /* \"#utility.yul\":8922:9341   */\n      swap2\n      swap1\n      pop\n      jump\t// out\n        /* \"#utility.yul\":9347:9527   */\n    tag_94:\n        /* \"#utility.yul\":9395:9472   */\n      0x4e487b7100000000000000000000000000000000000000000000000000000000\n        /* \"#utility.yul\":9392:9393   */\n      0x00\n        /* \"#utility.yul\":9385:9473   */\n      mstore\n        /* \"#utility.yul\":9492:9496   */\n      0x22\n        /* \"#utility.yul\":9489:9490   */\n      0x04\n        /* \"#utility.yul\":9482:9497   */\n      mstore\n        /* \"#utility.yul\":9516:9520   */\n      0x24\n        /* \"#utility.yul\":9513:9514   */\n      0x00\n        /* \"#utility.yul\":9506:9521   */\n      revert\n        /* \"#utility.yul\":9533:9853   */\n    tag_54:\n        /* \"#utility.yul\":9577:9583   */\n      0x00\n        /* \"#utility.yul\":9614:9615   */\n      0x02\n        /* \"#utility.yul\":9608:9612   */\n      dup3\n        /* \"#utility.yul\":9604:9616   */\n      div\n        /* \"#utility.yul\":9594:9616   */\n      swap1\n      pop\n        /* \"#utility.yul\":9661:9662   */\n      0x01\n        /* \"#utility.yul\":9655:9659   */\n      dup3\n        /* \"#utility.yul\":9651:9663   */\n      and\n        /* \"#utility.yul\":9682:9700   */\n      dup1\n        /* \"#utility.yul\":9672:9753   */\n      tag_214\n      jumpi\n        /* \"#utility.yul\":9738:9742   */\n      0x7f\n        /* \"#utility.yul\":9730:9736   */\n      dup3\n        /* \"#utility.yul\":9726:9743   */\n      and\n        /* \"#utility.yul\":9716:9743   */\n      swap2\n      pop\n        /* \"#utility.yul\":9672:9753   */\n    tag_214:\n        /* \"#utility.yul\":9800:9802   */\n      0x20\n        /* \"#utility.yul\":9792:9798   */\n      dup3\n        /* \"#utility.yul\":9789:9803   */\n      lt\n        /* \"#utility.yul\":9769:9787   */\n      dup2\n        /* \"#utility.yul\":9766:9804   */\n      sub\n        /* \"#utility.yul\":9763:9847   */\n      tag_215\n      jumpi\n        /* \"#utility.yul\":9819:9837   */\n      tag_216\n      tag_94\n      jump\t// in\n    tag_216:\n        /* \"#utility.yul\":9763:9847   */\n    tag_215:\n        /* \"#utility.yul\":9584:9853   */\n      pop\n        /* \"#utility.yul\":9533:9853   */\n      swap2\n      swap1\n      pop\n      jump\t// out\n        /* \"#utility.yul\":9859:10000   */\n    tag_95:\n        /* \"#utility.yul\":9908:9912   */\n      0x00\n        /* \"#utility.yul\":9931:9934   */\n      dup2\n        /* \"#utility.yul\":9923:9934   */\n      swap1\n      pop\n        /* \"#utility.yul\":9954:9957   */\n      dup2\n        /* \"#utility.yul\":9951:9952   */\n      0x00\n        /* \"#utility.yul\":9944:9958   */\n      mstore\n        /* \"#utility.yul\":9988:9992   */\n      0x20\n        /* \"#utility.yul\":9985:9986   */\n      0x00\n        /* \"#utility.yul\":9975:9993   */\n      keccak256\n        /* \"#utility.yul\":9967:9993   */\n      swap1\n      pop\n        /* \"#utility.yul\":9859:10000   */\n      swap2\n      swap1\n      pop\n      jump\t// out\n        /* \"#utility.yul\":10006:10099   */\n    tag_96:\n        /* \"#utility.yul\":10043:10049   */\n      0x00\n        /* \"#utility.yul\":10090:10092   */\n      0x20\n        /* \"#utility.yul\":10085:10087   */\n      0x1f\n        /* \"#utility.yul\":10078:10083   */\n      dup4\n        /* \"#utility.yul\":10074:10088   */\n      add\n        /* \"#utility.yul\":10070:10093   */\n      div\n        /* \"#utility.yul\":10060:10093   */\n      swap1\n      pop\n        /* \"#utility.yul\":10006:10099   */\n      swap2\n      swap1\n      pop\n      jump\t// out\n        /* \"#utility.yul\":10105:10212   */\n    tag_97:\n        /* \"#utility.yul\":10149:10157   */\n      0x00\n        /* \"#utility.yul\":10199:10204   */\n      dup3\n        /* \"#utility.yul\":10193:10197   */\n      dup3\n        /* \"#utility.yul\":10189:10205   */\n      shl\n        /* \"#utility.yul\":10168:10205   */\n      swap1\n      pop\n        /* \"#utility.yul\":10105:10212   */\n      swap3\n      swap2\n      pop\n      pop\n      jump\t// out\n        /* \"#utility.yul\":10218:10611   */\n    tag_98:\n        /* \"#utility.yul\":10287:10293   */\n      0x00\n        /* \"#utility.yul\":10337:10338   */\n      0x08\n        /* \"#utility.yul\":10325:10335   */\n      dup4\n        /* \"#utility.yul\":10321:10339   */\n      mul\n        /* \"#utility.yul\":10360:10457   */\n      tag_221\n        /* \"#utility.yul\":10390:10456   */\n      0xffffffffffffffffffffffffffffffffffffffffffffffffffffffffffffffff\n        /* \"#utility.yul\":10379:10388   */\n      dup3\n        /* \"#utility.yul\":10360:10457   */\n      tag_97\n      jump\t// in\n    tag_221:\n        /* \"#utility.yul\":10478:10517   */\n      tag_222\n        /* \"#utility.yul\":10508:10516   */\n      dup7\n        /* \"#utility.yul\":10497:10506   */\n      dup4\n        /* \"#utility.yul\":10478:10517   */\n      tag_97\n      jump\t// in\n    tag_222:\n        /* \"#utility.yul\":10466:10517   */\n      swap6\n      pop\n        /* \"#utility.yul\":10550:10554   */\n      dup1\n        /* \"#utility.yul\":10546:10555   */\n      not\n        /* \"#utility.yul\":10539:10544   */\n      dup5\n        /* \"#utility.yul\":10535:10556   */\n      and\n        /* \"#utility.yul\":10526:10556   */\n      swap4\n      pop\n        /* \"#utility.yul\":10599:10603   */\n      dup1\n        /* \"#utility.yul\":10589:10597   */\n      dup7\n        /* \"#utility.yul\":10585:10604   */\n      and\n        /* \"#utility.yul\":10578:10583   */\n      dup5\n        /* \"#utility.yul\":10575:10605   */\n      or\n        /* \"#utility.yul\":10565:10605   */\n      swap3\n      pop\n        /* \"#utility.yul\":10294:10611   */\n      pop\n      pop\n        /* \"#utility.yul\":10218:10611   */\n      swap4\n      swap3\n      pop\n      pop\n      pop\n      jump\t// out\n        /* \"#utility.yul\":10617:10694   */\n    tag_99:\n        /* \"#utility.yul\":10654:10661   */\n      0x00\n        /* \"#utility.yul\":10683:10688   */\n      dup2\n        /* \"#utility.yul\":10672:10688   */\n      swap1\n      pop\n        /* \"#utility.yul\":10617:10694   */\n      swap2\n      swap1\n      pop\n      jump\t// out\n        /* \"#utility.yul\":10700:10760   */\n    tag_100:\n        /* \"#utility.yul\":10728:10731   */\n      0x00\n        /* \"#utility.yul\":10749:10754   */\n      dup2\n        /* \"#utility.yul\":10742:10754   */\n      swap1\n      pop\n        /* \"#utility.yul\":10700:10760   */\n      swap2\n      swap1\n      pop\n      jump\t// out\n        /* \"#utility.yul\":10766:10908   */\n    tag_101:\n        /* \"#utility.yul\":10816:10825   */\n      0x00\n        /* \"#utility.yul\":10849:10902   */\n      tag_226\n        /* \"#utility.yul\":10867:10901   */\n      tag_227\n        /* \"#utility.yul\":10876:10900   */\n      tag_228\n        /* \"#utility.yul\":10894:10899   */\n      dup5\n        /* \"#utility.yul\":10876:10900   */\n      tag_99\n      jump\t// in\n    tag_228:\n        /* \"#utility.yul\":10867:10901   */\n      tag_100\n      jump\t// in\n    tag_227:\n        /* \"#utility.yul\":10849:10902   */\n      tag_99\n      jump\t// in\n    tag_226:\n        /* \"#utility.yul\":10836:10902   */\n      swap1\n      pop\n        /* \"#utility.yul\":10766:10908   */\n      swap2\n      swap1\n      pop\n      jump\t// out\n        /* \"#utility.yul\":10914:10989   */\n    tag_102:\n        /* \"#utility.yul\":10957:10960   */\n      0x00\n        /* \"#utility.yul\":10978:10983   */\n      dup2\n        /* \"#utility.yul\":10971:10983   */\n      swap1\n      pop\n        /* \"#utility.yul\":10914:10989   */\n      swap2\n      swap1\n      pop\n      jump\t// out\n        /* \"#utility.yul\":10995:11264   */\n    tag_103:\n        /* \"#utility.yul\":11105:11144   */\n      tag_231\n        /* \"#utility.yul\":11136:11143   */\n      dup4\n        /* \"#utility.yul\":11105:11144   */\n      tag_101\n      jump\t// in\n    tag_231:\n        /* \"#utility.yul\":11166:11257   */\n      tag_232\n        /* \"#utility.yul\":11215:11256   */\n      tag_233\n        /* \"#utility.yul\":11239:11255   */\n      dup3\n        /* \"#utility.yul\":11215:11256   */\n      tag_102\n      jump\t// in\n    tag_233:\n        /* \"#utility.yul\":11207:11213   */\n      dup5\n        /* \"#utility.yul\":11200:11204   */\n      dup5\n        /* \"#utility.yul\":11194:11205   */\n      sload\n        /* \"#utility.yul\":11166:11257   */\n      tag_98\n      jump\t// in\n    tag_232:\n        /* \"#utility.yul\":11160:11164   */\n      dup3\n        /* \"#utility.yul\":11153:11258   */\n      sstore\n        /* \"#utility.yul\":11071:11264   */\n      pop\n        /* \"#utility.yul\":10995:11264   */\n      pop\n      pop\n      pop\n      jump\t// out\n        /* \"#utility.yul\":11270:11343   */\n    tag_104:\n        /* \"#utility.yul\":11315:11318   */\n      0x00\n        /* \"#utility.yul\":11270:11343   */\n      swap1\n      jump\t// out\n        /* \"#utility.yul\":11349:11538   */\n    tag_105:\n        /* \"#utility.yul\":11426:11458   */\n      tag_236\n      tag_104\n      jump\t// in\n    tag_236:\n        /* \"#utility.yul\":11467:11532   */\n      tag_237\n        /* \"#utility.yul\":11525:11531   */\n      dup2\n        /* \"#utility.yul\":11517:11523   */\n      dup5\n        /* \"#utility.yul\":11511:11515   */\n      dup5\n        /* \"#utility.yul\":11467:11532   */\n      tag_103\n      jump\t// in\n    tag_237:\n        /* \"#utility.yul\":11402:11538   */\n      pop\n        /* \"#utility.yul\":11349:11538   */\n      pop\n      pop\n      jump\t// out\n        /* \"#utility.yul\":11544:11730   */\n    tag_106:\n        /* \"#utility.yul\":11604:11724   */\n    tag_239:\n        /* \"#utility.yul\":11621:11624   */\n      dup2\n        /* \"#utility.yul\":11614:11619   */\n      dup2\n        /* \"#utility.yul\":11611:11625   */\n      lt\n        /* \"#utility.yul\":11604:11724   */\n      iszero\n      tag_241\n      jumpi\n        /* \"#utility.yul\":11675:11714   */\n      tag_242\n        /* \"#utility.yul\":11712:11713   */\n      0x00\n        /* \"#utility.yul\":11705:11710   */\n      dup3\n        /* \"#utility.yul\":11675:11714   */\n      tag_105\n      jump\t// in\n    tag_242:\n        /* \"#utility.yul\":11648:11649   */\n      0x01\n        /* \"#utility.yul\":11641:11646   */\n      dup2\n        /* \"#utility.yul\":11637:11650   */\n      add\n        /* \"#utility.yul\":11628:11650   */\n      swap1\n      pop\n        /* \"#utility.yul\":11604:11724   */\n      jump(tag_239)\n    tag_241:\n        /* \"#utility.yul\":11544:11730   */\n      pop\n      pop\n      jump\t// out\n        /* \"#utility.yul\":11736:12279   */\n    tag_107:\n        /* \"#utility.yul\":11837:11839   */\n      0x1f\n        /* \"#utility.yul\":11832:11835   */\n      dup3\n        /* \"#utility.yul\":11829:11840   */\n      gt\n        /* \"#utility.yul\":11826:12272   */\n      iszero\n      tag_244\n      jumpi\n        /* \"#utility.yul\":11871:11909   */\n      tag_245\n        /* \"#utility.yul\":11903:11908   */\n      dup2\n        /* \"#utility.yul\":11871:11909   */\n      tag_95\n      jump\t// in\n    tag_245:\n        /* \"#utility.yul\":11955:11984   */\n      tag_246\n        /* \"#utility.yul\":11973:11983   */\n      dup5\n        /* \"#utility.yul\":11955:11984   */\n      tag_96\n      jump\t// in\n    tag_246:\n        /* \"#utility.yul\":11945:11953   */\n      dup2\n        /* \"#utility.yul\":11941:11985   */\n      add\n        /* \"#utility.yul\":12138:12140   */\n      0x20\n        /* \"#utility.yul\":12126:12136   */\n      dup6\n        /* \"#utility.yul\":12123:12141   */\n      lt\n        /* \"#utility.yul\":12120:12169   */\n      iszero\n      tag_247\n      jumpi\n        /* \"#utility.yul\":12159:12167   */\n      dup2\n        /* \"#utility.yul\":12144:12167   */\n      swap1\n      pop\n        /* \"#utility.yul\":12120:12169   */\n    tag_247:\n        /* \"#utility.yul\":12182:12262   */\n      tag_248\n        /* \"#utility.yul\":12238:12260   */\n      tag_249\n        /* \"#utility.yul\":12256:12259   */\n      dup6\n        /* \"#utility.yul\":12238:12260   */\n      tag_96\n      jump\t// in\n    tag_249:\n        /* \"#utility.yul\":12228:12236   */\n      dup4\n        /* \"#utility.yul\":12224:12261   */\n      add\n        /* \"#utility.yul\":12211:12222   */\n      dup3\n        /* \"#utility.yul\":12182:12262   */\n      tag_106\n      jump\t// in\n    tag_248:\n        /* \"#utility.yul\":11841:12272   */\n      pop\n      pop\n        /* \"#utility.yul\":11826:12272   */\n    tag_244:\n        /* \"#utility.yul\":11736:12279   */\n      pop\n      pop\n      pop\n      jump\t// out\n        /* \"#utility.yul\":12285:12402   */\n    tag_108:\n        /* \"#utility.yul\":12339:12347   */\n      0x00\n        /* \"#utility.yul\":12389:12394   */\n      dup3\n        /* \"#utility.yul\":12383:12387   */\n      dup3\n        /* \"#utility.yul\":12379:12395   */\n      shr\n        /* \"#utility.yul\":12358:12395   */\n      swap1\n      pop\n        /* \"#utility.yul\":12285:12402   */\n      swap3\n      swap2\n      pop\n      pop\n      jump\t// out\n        /* \"#utility.yul\":12408:12577   */\n    tag_109:\n        /* \"#utility.yul\":12452:12458   */\n      0x00\n        /* \"#utility.yul\":12485:12536   */\n      tag_252\n        /* \"#utility.yul\":12533:12534   */\n      0x00\n        /* \"#utility.yul\":12529:12535   */\n      not\n        /* \"#utility.yul\":12521:12526   */\n      dup5\n        /* \"#utility.yul\":12518:12519   */\n      0x08\n        /* \"#utility.yul\":12514:12527   */\n      mul\n        /* \"#utility.yul\":12485:12536   */\n      tag_108\n      jump\t// in\n    tag_252:\n        /* \"#utility.yul\":12481:12537   */\n      not\n        /* \"#utility.yul\":12566:12570   */\n      dup1\n        /* \"#utility.yul\":12560:12564   */\n      dup4\n        /* \"#utility.yul\":12556:12571   */\n      and\n        /* \"#utility.yul\":12546:12571   */\n      swap2\n      pop\n        /* \"#utility.yul\":12459:12577   */\n      pop\n        /* \"#utility.yul\":12408:12577   */\n      swap3\n      swap2\n      pop\n      pop\n      jump\t// out\n        /* \"#utility.yul\":12582:12877   */\n    tag_110:\n        /* \"#utility.yul\":12658:12662   */\n      0x00\n        /* \"#utility.yul\":12804:12833   */\n      tag_254\n        /* \"#utility.yul\":12829:12832   */\n      dup4\n        /* \"#utility.yul\":12823:12827   */\n      dup4\n        /* \"#utility.yul\":12804:12833   */\n      tag_109\n      jump\t// in\n    tag_254:\n        /* \"#utility.yul\":12796:12833   */\n      swap2\n      pop\n        /* \"#utility.yul\":12866:12869   */\n      dup3\n        /* \"#utility.yul\":12863:12864   */\n      0x02\n        /* \"#utility.yul\":12859:12870   */\n      mul\n        /* \"#utility.yul\":12853:12857   */\n      dup3\n        /* \"#utility.yul\":12850:12871   */\n      or\n        /* \"#utility.yul\":12842:12871   */\n      swap1\n      pop\n        /* \"#utility.yul\":12582:12877   */\n      swap3\n      swap2\n      pop\n      pop\n      jump\t// out\n        /* \"#utility.yul\":12882:14277   */\n    tag_42:\n        /* \"#utility.yul\":12999:13036   */\n      tag_256\n        /* \"#utility.yul\":13032:13035   */\n      dup3\n        /* \"#utility.yul\":12999:13036   */\n      tag_86\n      jump\t// in\n    tag_256:\n        /* \"#utility.yul\":13101:13119   */\n      0xffffffffffffffff\n        /* \"#utility.yul\":13093:13099   */\n      dup2\n        /* \"#utility.yul\":13090:13120   */\n      gt\n        /* \"#utility.yul\":13087:13143   */\n      iszero\n      tag_257\n      jumpi\n        /* \"#utility.yul\":13123:13141   */\n      tag_258\n      tag_71\n      jump\t// in\n    tag_258:\n        /* \"#utility.yul\":13087:13143   */\n    tag_257:\n        /* \"#utility.yul\":13167:13205   */\n      tag_259\n        /* \"#utility.yul\":13199:13203   */\n      dup3\n        /* \"#utility.yul\":13193:13204   */\n      sload\n        /* \"#utility.yul\":13167:13205   */\n      tag_54\n      jump\t// in\n    tag_259:\n        /* \"#utility.yul\":13252:13319   */\n      tag_260\n        /* \"#utility.yul\":13312:13318   */\n      dup3\n        /* \"#utility.yul\":13304:13310   */\n      dup3\n        /* \"#utility.yul\":13298:13302   */\n      dup6\n        /* \"#utility.yul\":13252:13319   */\n      tag_107\n      jump\t// in\n    tag_260:\n        /* \"#utility.yul\":13346:13347   */\n      0x00\n        /* \"#utility.yul\":13370:13374   */\n      0x20\n        /* \"#utility.yul\":13357:13374   */\n      swap1\n      pop\n        /* \"#utility.yul\":13402:13404   */\n      0x1f\n        /* \"#utility.yul\":13394:13400   */\n      dup4\n        /* \"#utility.yul\":13391:13405   */\n      gt\n        /* \"#utility.yul\":13419:13420   */\n      0x01\n        /* \"#utility.yul\":13414:14032   */\n      dup2\n      eq\n      tag_262\n      jumpi\n        /* \"#utility.yul\":14076:14077   */\n      0x00\n        /* \"#utility.yul\":14093:14099   */\n      dup5\n        /* \"#utility.yul\":14090:14167   */\n      iszero\n      tag_263\n      jumpi\n        /* \"#utility.yul\":14142:14151   */\n      dup3\n        /* \"#utility.yul\":14137:14140   */\n      dup8\n        /* \"#utility.yul\":14133:14152   */\n      add\n        /* \"#utility.yul\":14127:14153   */\n      mload\n        /* \"#utility.yul\":14118:14153   */\n      swap1\n      pop\n        /* \"#utility.yul\":14090:14167   */\n    tag_263:\n        /* \"#utility.yul\":14193:14260   */\n      tag_264\n        /* \"#utility.yul\":14253:14259   */\n      dup6\n        /* \"#utility.yul\":14246:14251   */\n      dup3\n        /* \"#utility.yul\":14193:14260   */\n      tag_110\n      jump\t// in\n    tag_264:\n        /* \"#utility.yul\":14187:14191   */\n      dup7\n        /* \"#utility.yul\":14180:14261   */\n      sstore\n        /* \"#utility.yul\":14049:14271   */\n      pop\n        /* \"#utility.yul\":13384:14271   */\n      jump(tag_261)\n        /* \"#utility.yul\":13414:14032   */\n    tag_262:\n        /* \"#utility.yul\":13466:13470   */\n      0x1f\n        /* \"#utility.yul\":13462:13471   */\n      not\n        /* \"#utility.yul\":13454:13460   */\n      dup5\n        /* \"#utility.yul\":13450:13472   */\n      and\n        /* \"#utility.yul\":13500:13537   */\n      tag_265\n        /* \"#utility.yul\":13532:13536   */\n      dup7\n        /* \"#utility.yul\":13500:13537   */\n      tag_95\n      jump\t// in\n    tag_265:\n        /* \"#utility.yul\":13559:13560   */\n      0x00\n        /* \"#utility.yul\":13573:13781   */\n    tag_266:\n        /* \"#utility.yul\":13587:13594   */\n      dup3\n        /* \"#utility.yul\":13584:13585   */\n      dup2\n        /* \"#utility.yul\":13581:13595   */\n      lt\n        /* \"#utility.yul\":13573:13781   */\n      iszero\n      tag_268\n      jumpi\n        /* \"#utility.yul\":13666:13675   */\n      dup5\n        /* \"#utility.yul\":13661:13664   */\n      dup10\n        /* \"#utility.yul\":13657:13676   */\n      add\n        /* \"#utility.yul\":13651:13677   */\n      mload\n        /* \"#utility.yul\":13643:13649   */\n      dup3\n        /* \"#utility.yul\":13636:13678   */\n      sstore\n        /* \"#utility.yul\":13717:13718   */\n      0x01\n        /* \"#utility.yul\":13709:13715   */\n      dup3\n        /* \"#utility.yul\":13705:13719   */\n      add\n        /* \"#utility.yul\":13695:13719   */\n      swap2\n      pop\n        /* \"#utility.yul\":13764:13766   */\n      0x20\n        /* \"#utility.yul\":13753:13762   */\n      dup6\n        /* \"#utility.yul\":13749:13767   */\n      add\n        /* \"#utility.yul\":13736:13767   */\n      swap5\n      pop\n        /* \"#utility.yul\":13610:13614   */\n      0x20\n        /* \"#utility.yul\":13607:13608   */\n      dup2\n        /* \"#utility.yul\":13603:13615   */\n      add\n        /* \"#utility.yul\":13598:13615   */\n      swap1\n      pop\n        /* \"#utility.yul\":13573:13781   */\n      jump(tag_266)\n    tag_268:\n        /* \"#utility.yul\":13809:13815   */\n      dup7\n        /* \"#utility.yul\":13800:13807   */\n      dup4\n        /* \"#utility.yul\":13797:13816   */\n      lt\n        /* \"#utility.yul\":13794:13973   */\n      iszero\n      tag_269\n      jumpi\n        /* \"#utility.yul\":13867:13876   */\n      dup5\n        /* \"#utility.yul\":13862:13865   */\n      dup10\n        /* \"#utility.yul\":13858:13877   */\n      add\n        /* \"#utility.yul\":13852:13878   */\n      mload\n        /* \"#utility.yul\":13910:13958   */\n      tag_270\n        /* \"#utility.yul\":13952:13956   */\n      0x1f\n        /* \"#utility.yul\":13944:13950   */\n      dup10\n        /* \"#utility.yul\":13940:13957   */\n      and\n        /* \"#utility.yul\":13929:13938   */\n      dup3\n        /* \"#utility.yul\":13910:13958   */\n      tag_109\n      jump\t// in\n    tag_270:\n        /* \"#utility.yul\":13902:13908   */\n      dup4\n        /* \"#utility.yul\":13895:13959   */\n      sstore\n        /* \"#utility.yul\":13817:13973   */\n      pop\n        /* \"#utility.yul\":13794:13973   */\n    tag_269:\n        /* \"#utility.yul\":14019:14020   */\n      0x01\n        /* \"#utility.yul\":14015:14016   */\n      0x02\n        /* \"#utility.yul\":14007:14013   */\n      dup9\n        /* \"#utility.yul\":14003:14017   */\n      mul\n        /* \"#utility.yul\":13999:14021   */\n      add\n        /* \"#utility.yul\":13993:13997   */\n      dup9\n        /* \"#utility.yul\":13986:14022   */\n      sstore\n        /* \"#utility.yul\":13421:14032   */\n      pop\n      pop\n      pop\n        /* \"#utility.yul\":13384:14271   */\n    tag_261:\n      pop\n        /* \"#utility.yul\":12974:14277   */\n      pop\n      pop\n      pop\n        /* \"#utility.yul\":12882:14277   */\n      pop\n      pop\n      jump\t// out\n        /* \"#utility.yul\":14283:14722   */\n    tag_48:\n        /* \"#utility.yul\":14432:14436   */\n      0x00\n        /* \"#utility.yul\":14470:14472   */\n      0x40\n        /* \"#utility.yul\":14459:14468   */\n      dup3\n        /* \"#utility.yul\":14455:14473   */\n      add\n        /* \"#utility.yul\":14447:14473   */\n      swap1\n      pop\n        /* \"#utility.yul\":14519:14528   */\n      dup2\n        /* \"#utility.yul\":14513:14517   */\n      dup2\n        /* \"#utility.yul\":14509:14529   */\n      sub\n        /* \"#utility.yul\":14505:14506   */\n      0x00\n        /* \"#utility.yul\":14494:14503   */\n      dup4\n        /* \"#utility.yul\":14490:14507   */\n      add\n        /* \"#utility.yul\":14483:14530   */\n      mstore\n        /* \"#utility.yul\":14547:14625   */\n      tag_272\n        /* \"#utility.yul\":14620:14624   */\n      dup2\n        /* \"#utility.yul\":14611:14617   */\n      dup6\n        /* \"#utility.yul\":14547:14625   */\n      tag_89\n      jump\t// in\n    tag_272:\n        /* \"#utility.yul\":14539:14625   */\n      swap1\n      pop\n        /* \"#utility.yul\":14635:14715   */\n      tag_273\n        /* \"#utility.yul\":14711:14713   */\n      0x20\n        /* \"#utility.yul\":14700:14709   */\n      dup4\n        /* \"#utility.yul\":14696:14714   */\n      add\n        /* \"#utility.yul\":14687:14693   */\n      dup5\n        /* \"#utility.yul\":14635:14715   */\n      tag_84\n      jump\t// in\n    tag_273:\n        /* \"#utility.yul\":14283:14722   */\n      swap4\n      swap3\n      pop\n      pop\n      pop\n      jump\t// out\n        /* \"#utility.yul\":14728:14897   */\n    tag_111:\n        /* \"#utility.yul\":14868:14889   */\n      0x55736572206e6f74207265676973746572656400000000000000000000000000\n        /* \"#utility.yul\":14864:14865   */\n      0x00\n        /* \"#utility.yul\":14856:14862   */\n      dup3\n        /* \"#utility.yul\":14852:14866   */\n      add\n        /* \"#utility.yul\":14845:14890   */\n      mstore\n        /* \"#utility.yul\":14728:14897   */\n      pop\n      jump\t// out\n        /* \"#utility.yul\":14903:15269   */\n    tag_112:\n        /* \"#utility.yul\":15045:15048   */\n      0x00\n        /* \"#utility.yul\":15066:15133   */\n      tag_276\n        /* \"#utility.yul\":15130:15132   */\n      0x13\n        /* \"#utility.yul\":15125:15128   */\n      dup4\n        /* \"#utility.yul\":15066:15133   */\n      tag_87\n      jump\t// in\n    tag_276:\n        /* \"#utility.yul\":15059:15133   */\n      swap2\n      pop\n        /* \"#utility.yul\":15142:15235   */\n      tag_277\n        /* \"#utility.yul\":15231:15234   */\n      dup3\n        /* \"#utility.yul\":15142:15235   */\n      tag_111\n      jump\t// in\n    tag_277:\n        /* \"#utility.yul\":15260:15262   */\n      0x20\n        /* \"#utility.yul\":15255:15258   */\n      dup3\n        /* \"#utility.yul\":15251:15263   */\n      add\n        /* \"#utility.yul\":15244:15263   */\n      swap1\n      pop\n        /* \"#utility.yul\":14903:15269   */\n      swap2\n      swap1\n      pop\n      jump\t// out\n        /* \"#utility.yul\":15275:15694   */\n    tag_52:\n        /* \"#utility.yul\":15441:15445   */\n      0x00\n        /* \"#utility.yul\":15479:15481   */\n      0x20\n        /* \"#utility.yul\":15468:15477   */\n      dup3\n        /* \"#utility.yul\":15464:15482   */\n      add\n        /* \"#utility.yul\":15456:15482   */\n      swap1\n      pop\n        /* \"#utility.yul\":15528:15537   */\n      dup2\n        /* \"#utility.yul\":15522:15526   */\n      dup2\n        /* \"#utility.yul\":15518:15538   */\n      sub\n        /* \"#utility.yul\":15514:15515   */\n      0x00\n        /* \"#utility.yul\":15503:15512   */\n      dup4\n        /* \"#utility.yul\":15499:15516   */\n      add\n        /* \"#utility.yul\":15492:15539   */\n      mstore\n        /* \"#utility.yul\":15556:15687   */\n      tag_279\n        /* \"#utility.yul\":15682:15686   */\n      dup2\n        /* \"#utility.yul\":15556:15687   */\n      tag_112\n      jump\t// in\n    tag_279:\n        /* \"#utility.yul\":15548:15687   */\n      swap1\n      pop\n        /* \"#utility.yul\":15275:15694   */\n      swap2\n      swap1\n      pop\n      jump\t// out\n\n    auxdata: 0xa2646970667358221220f18d1030a2db7dfa71d332e309d6b47ef1ce79af09c8101517ec5de5c9c0e65664736f6c634300081a0033\n}\n",
				"bytecode": {
					"linkReferences": {},
					"object": "6080604052348015600e575f80fd5b50610df78061001c5f395ff3fe608060405234801561000f575f80fd5b506004361061004a575f3560e01c8063163f75221461004e578063338e12eb1461007e5780638b3f863f1461009a578063a87430ba146100ca575b5f80fd5b6100686004803603810190610063919061061a565b6100fd565b604051610075919061065f565b60405180910390f35b610098600480360381019061009391906107ea565b610152565b005b6100b460048036038101906100af919061061a565b6103e6565b6040516100c191906108b7565b60405180910390f35b6100e460048036038101906100df919061061a565b6104c6565b6040516100f4949392919061093f565b60405180910390f35b5f805f8373ffffffffffffffffffffffffffffffffffffffff1673ffffffffffffffffffffffffffffffffffffffff1681526020019081526020015f2060020160019054906101000a900460ff169050919050565b5f8160ff16118015610168575060028160ff1611155b6101a7576040517f08c379a000000000000000000000000000000000000000000000000000000000815260040161019e906109d3565b60405180910390fd5b5f803373ffffffffffffffffffffffffffffffffffffffff1673ffffffffffffffffffffffffffffffffffffffff1681526020019081526020015f2060020160019054906101000a900460ff1615610234576040517f08c379a000000000000000000000000000000000000000000000000000000000815260040161022b90610a3b565b60405180910390fd5b60405180608001604052803373ffffffffffffffffffffffffffffffffffffffff1681526020018381526020018260ff16600281111561027757610276610844565b5b600281111561028957610288610844565b5b8152602001600115158152505f803373ffffffffffffffffffffffffffffffffffffffff1673ffffffffffffffffffffffffffffffffffffffff1681526020019081526020015f205f820151815f015f6101000a81548173ffffffffffffffffffffffffffffffffffffffff021916908373ffffffffffffffffffffffffffffffffffffffff160217905550602082015181600101908161032a9190610c5c565b506040820151816002015f6101000a81548160ff0219169083600281111561035557610354610844565b5b021790555060608201518160020160016101000a81548160ff0219169083151502179055509050503373ffffffffffffffffffffffffffffffffffffffff167fc2e5d5da58bd71d1a2d14cdef02a4256d971b728088f8190d067ccfbae3bd73e838360ff1660028111156103cc576103cb610844565b5b6040516103da929190610d2b565b60405180910390a25050565b5f805f8373ffffffffffffffffffffffffffffffffffffffff1673ffffffffffffffffffffffffffffffffffffffff1681526020019081526020015f2060020160019054906101000a900460ff16610473576040517f08c379a000000000000000000000000000000000000000000000000000000000815260040161046a90610da3565b60405180910390fd5b5f808373ffffffffffffffffffffffffffffffffffffffff1673ffffffffffffffffffffffffffffffffffffffff1681526020019081526020015f206002015f9054906101000a900460ff169050919050565b5f602052805f5260405f205f91509050805f015f9054906101000a900473ffffffffffffffffffffffffffffffffffffffff169080600101805461050990610a86565b80601f016020809104026020016040519081016040528092919081815260200182805461053590610a86565b80156105805780601f1061055757610100808354040283529160200191610580565b820191905f5260205f20905b81548152906001019060200180831161056357829003601f168201915b505050505090806002015f9054906101000a900460ff16908060020160019054906101000a900460ff16905084565b5f604051905090565b5f80fd5b5f80fd5b5f73ffffffffffffffffffffffffffffffffffffffff82169050919050565b5f6105e9826105c0565b9050919050565b6105f9816105df565b8114610603575f80fd5b50565b5f81359050610614816105f0565b92915050565b5f6020828403121561062f5761062e6105b8565b5b5f61063c84828501610606565b91505092915050565b5f8115159050919050565b61065981610645565b82525050565b5f6020820190506106725f830184610650565b92915050565b5f80fd5b5f80fd5b5f601f19601f8301169050919050565b7f4e487b71000000000000000000000000000000000000000000000000000000005f52604160045260245ffd5b6106c682610680565b810181811067ffffffffffffffff821117156106e5576106e4610690565b5b80604052505050565b5f6106f76105af565b905061070382826106bd565b919050565b5f67ffffffffffffffff82111561072257610721610690565b5b61072b82610680565b9050602081019050919050565b828183375f83830152505050565b5f61075861075384610708565b6106ee565b9050828152602081018484840111156107745761077361067c565b5b61077f848285610738565b509392505050565b5f82601f83011261079b5761079a610678565b5b81356107ab848260208601610746565b91505092915050565b5f60ff82169050919050565b6107c9816107b4565b81146107d3575f80fd5b50565b5f813590506107e4816107c0565b92915050565b5f8060408385031215610800576107ff6105b8565b5b5f83013567ffffffffffffffff81111561081d5761081c6105bc565b5b61082985828601610787565b925050602061083a858286016107d6565b9150509250929050565b7f4e487b71000000000000000000000000000000000000000000000000000000005f52602160045260245ffd5b6003811061088257610881610844565b5b50565b5f81905061089282610871565b919050565b5f6108a182610885565b9050919050565b6108b181610897565b82525050565b5f6020820190506108ca5f8301846108a8565b92915050565b6108d9816105df565b82525050565b5f81519050919050565b5f82825260208201905092915050565b8281835e5f83830152505050565b5f610911826108df565b61091b81856108e9565b935061092b8185602086016108f9565b61093481610680565b840191505092915050565b5f6080820190506109525f8301876108d0565b81810360208301526109648186610907565b905061097360408301856108a8565b6109806060830184610650565b95945050505050565b7f496e76616c6964207573657220747970650000000000000000000000000000005f82015250565b5f6109bd6011836108e9565b91506109c882610989565b602082019050919050565b5f6020820190508181035f8301526109ea816109b1565b9050919050565b7f5573657220616c726561647920726567697374657265640000000000000000005f82015250565b5f610a256017836108e9565b9150610a30826109f1565b602082019050919050565b5f6020820190508181035f830152610a5281610a19565b9050919050565b7f4e487b71000000000000000000000000000000000000000000000000000000005f52602260045260245ffd5b5f6002820490506001821680610a9d57607f821691505b602082108103610ab057610aaf610a59565b5b50919050565b5f819050815f5260205f209050919050565b5f6020601f8301049050919050565b5f82821b905092915050565b5f60088302610b127fffffffffffffffffffffffffffffffffffffffffffffffffffffffffffffffff82610ad7565b610b1c8683610ad7565b95508019841693508086168417925050509392505050565b5f819050919050565b5f819050919050565b5f610b60610b5b610b5684610b34565b610b3d565b610b34565b9050919050565b5f819050919050565b610b7983610b46565b610b8d610b8582610b67565b848454610ae3565b825550505050565b5f90565b610ba1610b95565b610bac818484610b70565b505050565b5b81811015610bcf57610bc45f82610b99565b600181019050610bb2565b5050565b601f821115610c1457610be581610ab6565b610bee84610ac8565b81016020851015610bfd578190505b610c11610c0985610ac8565b830182610bb1565b50505b505050565b5f82821c905092915050565b5f610c345f1984600802610c19565b1980831691505092915050565b5f610c4c8383610c25565b9150826002028217905092915050565b610c65826108df565b67ffffffffffffffff811115610c7e57610c7d610690565b5b610c888254610a86565b610c93828285610bd3565b5f60209050601f831160018114610cc4575f8415610cb2578287015190505b610cbc8582610c41565b865550610d23565b601f198416610cd286610ab6565b5f5b82811015610cf957848901518255600182019150602085019450602081019050610cd4565b86831015610d165784890151610d12601f891682610c25565b8355505b6001600288020188555050505b505050505050565b5f6040820190508181035f830152610d438185610907565b9050610d5260208301846108a8565b9392505050565b7f55736572206e6f742072656769737465726564000000000000000000000000005f82015250565b5f610d8d6013836108e9565b9150610d9882610d59565b602082019050919050565b5f6020820190508181035f830152610dba81610d81565b905091905056fea2646970667358221220f18d1030a2db7dfa71d332e309d6b47ef1ce79af09c8101517ec5de5c9c0e65664736f6c634300081a0033",
					"opcodes": "PUSH1 0x80 PUSH1 0x40 MSTORE CALLVALUE DUP1 ISZERO PUSH1 0xE JUMPI PUSH0 DUP1 REVERT JUMPDEST POP PUSH2 0xDF7 DUP1 PUSH2 0x1C PUSH0 CODECOPY PUSH0 RETURN INVALID PUSH1 0x80 PUSH1 0x40 MSTORE CALLVALUE DUP1 ISZERO PUSH2 0xF JUMPI PUSH0 DUP1 REVERT JUMPDEST POP PUSH1 0x4 CALLDATASIZE LT PUSH2 0x4A JUMPI PUSH0 CALLDATALOAD PUSH1 0xE0 SHR DUP1 PUSH4 0x163F7522 EQ PUSH2 0x4E JUMPI DUP1 PUSH4 0x338E12EB EQ PUSH2 0x7E JUMPI DUP1 PUSH4 0x8B3F863F EQ PUSH2 0x9A JUMPI DUP1 PUSH4 0xA87430BA EQ PUSH2 0xCA JUMPI JUMPDEST PUSH0 DUP1 REVERT JUMPDEST PUSH2 0x68 PUSH1 0x4 DUP1 CALLDATASIZE SUB DUP2 ADD SWAP1 PUSH2 0x63 SWAP2 SWAP1 PUSH2 0x61A JUMP JUMPDEST PUSH2 0xFD JUMP JUMPDEST PUSH1 0x40 MLOAD PUSH2 0x75 SWAP2 SWAP1 PUSH2 0x65F JUMP JUMPDEST PUSH1 0x40 MLOAD DUP1 SWAP2 SUB SWAP1 RETURN JUMPDEST PUSH2 0x98 PUSH1 0x4 DUP1 CALLDATASIZE SUB DUP2 ADD SWAP1 PUSH2 0x93 SWAP2 SWAP1 PUSH2 0x7EA JUMP JUMPDEST PUSH2 0x152 JUMP JUMPDEST STOP JUMPDEST PUSH2 0xB4 PUSH1 0x4 DUP1 CALLDATASIZE SUB DUP2 ADD SWAP1 PUSH2 0xAF SWAP2 SWAP1 PUSH2 0x61A JUMP JUMPDEST PUSH2 0x3E6 JUMP JUMPDEST PUSH1 0x40 MLOAD PUSH2 0xC1 SWAP2 SWAP1 PUSH2 0x8B7 JUMP JUMPDEST PUSH1 0x40 MLOAD DUP1 SWAP2 SUB SWAP1 RETURN JUMPDEST PUSH2 0xE4 PUSH1 0x4 DUP1 CALLDATASIZE SUB DUP2 ADD SWAP1 PUSH2 0xDF SWAP2 SWAP1 PUSH2 0x61A JUMP JUMPDEST PUSH2 0x4C6 JUMP JUMPDEST PUSH1 0x40 MLOAD PUSH2 0xF4 SWAP5 SWAP4 SWAP3 SWAP2 SWAP1 PUSH2 0x93F JUMP JUMPDEST PUSH1 0x40 MLOAD DUP1 SWAP2 SUB SWAP1 RETURN JUMPDEST PUSH0 DUP1 PUSH0 DUP4 PUSH20 0xFFFFFFFFFFFFFFFFFFFFFFFFFFFFFFFFFFFFFFFF AND PUSH20 0xFFFFFFFFFFFFFFFFFFFFFFFFFFFFFFFFFFFFFFFF AND DUP2 MSTORE PUSH1 0x20 ADD SWAP1 DUP2 MSTORE PUSH1 0x20 ADD PUSH0 KECCAK256 PUSH1 0x2 ADD PUSH1 0x1 SWAP1 SLOAD SWAP1 PUSH2 0x100 EXP SWAP1 DIV PUSH1 0xFF AND SWAP1 POP SWAP2 SWAP1 POP JUMP JUMPDEST PUSH0 DUP2 PUSH1 0xFF AND GT DUP1 ISZERO PUSH2 0x168 JUMPI POP PUSH1 0x2 DUP2 PUSH1 0xFF AND GT ISZERO JUMPDEST PUSH2 0x1A7 JUMPI PUSH1 0x40 MLOAD PUSH32 0x8C379A000000000000000000000000000000000000000000000000000000000 DUP2 MSTORE PUSH1 0x4 ADD PUSH2 0x19E SWAP1 PUSH2 0x9D3 JUMP JUMPDEST PUSH1 0x40 MLOAD DUP1 SWAP2 SUB SWAP1 REVERT JUMPDEST PUSH0 DUP1 CALLER PUSH20 0xFFFFFFFFFFFFFFFFFFFFFFFFFFFFFFFFFFFFFFFF AND PUSH20 0xFFFFFFFFFFFFFFFFFFFFFFFFFFFFFFFFFFFFFFFF AND DUP2 MSTORE PUSH1 0x20 ADD SWAP1 DUP2 MSTORE PUSH1 0x20 ADD PUSH0 KECCAK256 PUSH1 0x2 ADD PUSH1 0x1 SWAP1 SLOAD SWAP1 PUSH2 0x100 EXP SWAP1 DIV PUSH1 0xFF AND ISZERO PUSH2 0x234 JUMPI PUSH1 0x40 MLOAD PUSH32 0x8C379A000000000000000000000000000000000000000000000000000000000 DUP2 MSTORE PUSH1 0x4 ADD PUSH2 0x22B SWAP1 PUSH2 0xA3B JUMP JUMPDEST PUSH1 0x40 MLOAD DUP1 SWAP2 SUB SWAP1 REVERT JUMPDEST PUSH1 0x40 MLOAD DUP1 PUSH1 0x80 ADD PUSH1 0x40 MSTORE DUP1 CALLER PUSH20 0xFFFFFFFFFFFFFFFFFFFFFFFFFFFFFFFFFFFFFFFF AND DUP2 MSTORE PUSH1 0x20 ADD DUP4 DUP2 MSTORE PUSH1 0x20 ADD DUP3 PUSH1 0xFF AND PUSH1 0x2 DUP2 GT ISZERO PUSH2 0x277 JUMPI PUSH2 0x276 PUSH2 0x844 JUMP JUMPDEST JUMPDEST PUSH1 0x2 DUP2 GT ISZERO PUSH2 0x289 JUMPI PUSH2 0x288 PUSH2 0x844 JUMP JUMPDEST JUMPDEST DUP2 MSTORE PUSH1 0x20 ADD PUSH1 0x1 ISZERO ISZERO DUP2 MSTORE POP PUSH0 DUP1 CALLER PUSH20 0xFFFFFFFFFFFFFFFFFFFFFFFFFFFFFFFFFFFFFFFF AND PUSH20 0xFFFFFFFFFFFFFFFFFFFFFFFFFFFFFFFFFFFFFFFF AND DUP2 MSTORE PUSH1 0x20 ADD SWAP1 DUP2 MSTORE PUSH1 0x20 ADD PUSH0 KECCAK256 PUSH0 DUP3 ADD MLOAD DUP2 PUSH0 ADD PUSH0 PUSH2 0x100 EXP DUP2 SLOAD DUP2 PUSH20 0xFFFFFFFFFFFFFFFFFFFFFFFFFFFFFFFFFFFFFFFF MUL NOT AND SWAP1 DUP4 PUSH20 0xFFFFFFFFFFFFFFFFFFFFFFFFFFFFFFFFFFFFFFFF AND MUL OR SWAP1 SSTORE POP PUSH1 0x20 DUP3 ADD MLOAD DUP2 PUSH1 0x1 ADD SWAP1 DUP2 PUSH2 0x32A SWAP2 SWAP1 PUSH2 0xC5C JUMP JUMPDEST POP PUSH1 0x40 DUP3 ADD MLOAD DUP2 PUSH1 0x2 ADD PUSH0 PUSH2 0x100 EXP DUP2 SLOAD DUP2 PUSH1 0xFF MUL NOT AND SWAP1 DUP4 PUSH1 0x2 DUP2 GT ISZERO PUSH2 0x355 JUMPI PUSH2 0x354 PUSH2 0x844 JUMP JUMPDEST JUMPDEST MUL OR SWAP1 SSTORE POP PUSH1 0x60 DUP3 ADD MLOAD DUP2 PUSH1 0x2 ADD PUSH1 0x1 PUSH2 0x100 EXP DUP2 SLOAD DUP2 PUSH1 0xFF MUL NOT AND SWAP1 DUP4 ISZERO ISZERO MUL OR SWAP1 SSTORE POP SWAP1 POP POP CALLER PUSH20 0xFFFFFFFFFFFFFFFFFFFFFFFFFFFFFFFFFFFFFFFF AND PUSH32 0xC2E5D5DA58BD71D1A2D14CDEF02A4256D971B728088F8190D067CCFBAE3BD73E DUP4 DUP4 PUSH1 0xFF AND PUSH1 0x2 DUP2 GT ISZERO PUSH2 0x3CC JUMPI PUSH2 0x3CB PUSH2 0x844 JUMP JUMPDEST JUMPDEST PUSH1 0x40 MLOAD PUSH2 0x3DA SWAP3 SWAP2 SWAP1 PUSH2 0xD2B JUMP JUMPDEST PUSH1 0x40 MLOAD DUP1 SWAP2 SUB SWAP1 LOG2 POP POP JUMP JUMPDEST PUSH0 DUP1 PUSH0 DUP4 PUSH20 0xFFFFFFFFFFFFFFFFFFFFFFFFFFFFFFFFFFFFFFFF AND PUSH20 0xFFFFFFFFFFFFFFFFFFFFFFFFFFFFFFFFFFFFFFFF AND DUP2 MSTORE PUSH1 0x20 ADD SWAP1 DUP2 MSTORE PUSH1 0x20 ADD PUSH0 KECCAK256 PUSH1 0x2 ADD PUSH1 0x1 SWAP1 SLOAD SWAP1 PUSH2 0x100 EXP SWAP1 DIV PUSH1 0xFF AND PUSH2 0x473 JUMPI PUSH1 0x40 MLOAD PUSH32 0x8C379A000000000000000000000000000000000000000000000000000000000 DUP2 MSTORE PUSH1 0x4 ADD PUSH2 0x46A SWAP1 PUSH2 0xDA3 JUMP JUMPDEST PUSH1 0x40 MLOAD DUP1 SWAP2 SUB SWAP1 REVERT JUMPDEST PUSH0 DUP1 DUP4 PUSH20 0xFFFFFFFFFFFFFFFFFFFFFFFFFFFFFFFFFFFFFFFF AND PUSH20 0xFFFFFFFFFFFFFFFFFFFFFFFFFFFFFFFFFFFFFFFF AND DUP2 MSTORE PUSH1 0x20 ADD SWAP1 DUP2 MSTORE PUSH1 0x20 ADD PUSH0 KECCAK256 PUSH1 0x2 ADD PUSH0 SWAP1 SLOAD SWAP1 PUSH2 0x100 EXP SWAP1 DIV PUSH1 0xFF AND SWAP1 POP SWAP2 SWAP1 POP JUMP JUMPDEST PUSH0 PUSH1 0x20 MSTORE DUP1 PUSH0 MSTORE PUSH1 0x40 PUSH0 KECCAK256 PUSH0 SWAP2 POP SWAP1 POP DUP1 PUSH0 ADD PUSH0 SWAP1 SLOAD SWAP1 PUSH2 0x100 EXP SWAP1 DIV PUSH20 0xFFFFFFFFFFFFFFFFFFFFFFFFFFFFFFFFFFFFFFFF AND SWAP1 DUP1 PUSH1 0x1 ADD DUP1 SLOAD PUSH2 0x509 SWAP1 PUSH2 0xA86 JUMP JUMPDEST DUP1 PUSH1 0x1F ADD PUSH1 0x20 DUP1 SWAP2 DIV MUL PUSH1 0x20 ADD PUSH1 0x40 MLOAD SWAP1 DUP2 ADD PUSH1 0x40 MSTORE DUP1 SWAP3 SWAP2 SWAP1 DUP2 DUP2 MSTORE PUSH1 0x20 ADD DUP3 DUP1 SLOAD PUSH2 0x535 SWAP1 PUSH2 0xA86 JUMP JUMPDEST DUP1 ISZERO PUSH2 0x580 JUMPI DUP1 PUSH1 0x1F LT PUSH2 0x557 JUMPI PUSH2 0x100 DUP1 DUP4 SLOAD DIV MUL DUP4 MSTORE SWAP2 PUSH1 0x20 ADD SWAP2 PUSH2 0x580 JUMP JUMPDEST DUP3 ADD SWAP2 SWAP1 PUSH0 MSTORE PUSH1 0x20 PUSH0 KECCAK256 SWAP1 JUMPDEST DUP2 SLOAD DUP2 MSTORE SWAP1 PUSH1 0x1 ADD SWAP1 PUSH1 0x20 ADD DUP1 DUP4 GT PUSH2 0x563 JUMPI DUP3 SWAP1 SUB PUSH1 0x1F AND DUP3 ADD SWAP2 JUMPDEST POP POP POP POP POP SWAP1 DUP1 PUSH1 0x2 ADD PUSH0 SWAP1 SLOAD SWAP1 PUSH2 0x100 EXP SWAP1 DIV PUSH1 0xFF AND SWAP1 DUP1 PUSH1 0x2 ADD PUSH1 0x1 SWAP1 SLOAD SWAP1 PUSH2 0x100 EXP SWAP1 DIV PUSH1 0xFF AND SWAP1 POP DUP5 JUMP JUMPDEST PUSH0 PUSH1 0x40 MLOAD SWAP1 POP SWAP1 JUMP JUMPDEST PUSH0 DUP1 REVERT JUMPDEST PUSH0 DUP1 REVERT JUMPDEST PUSH0 PUSH20 0xFFFFFFFFFFFFFFFFFFFFFFFFFFFFFFFFFFFFFFFF DUP3 AND SWAP1 POP SWAP2 SWAP1 POP JUMP JUMPDEST PUSH0 PUSH2 0x5E9 DUP3 PUSH2 0x5C0 JUMP JUMPDEST SWAP1 POP SWAP2 SWAP1 POP JUMP JUMPDEST PUSH2 0x5F9 DUP2 PUSH2 0x5DF JUMP JUMPDEST DUP2 EQ PUSH2 0x603 JUMPI PUSH0 DUP1 REVERT JUMPDEST POP JUMP JUMPDEST PUSH0 DUP2 CALLDATALOAD SWAP1 POP PUSH2 0x614 DUP2 PUSH2 0x5F0 JUMP JUMPDEST SWAP3 SWAP2 POP POP JUMP JUMPDEST PUSH0 PUSH1 0x20 DUP3 DUP5 SUB SLT ISZERO PUSH2 0x62F JUMPI PUSH2 0x62E PUSH2 0x5B8 JUMP JUMPDEST JUMPDEST PUSH0 PUSH2 0x63C DUP5 DUP3 DUP6 ADD PUSH2 0x606 JUMP JUMPDEST SWAP2 POP POP SWAP3 SWAP2 POP POP JUMP JUMPDEST PUSH0 DUP2 ISZERO ISZERO SWAP1 POP SWAP2 SWAP1 POP JUMP JUMPDEST PUSH2 0x659 DUP2 PUSH2 0x645 JUMP JUMPDEST DUP3 MSTORE POP POP JUMP JUMPDEST PUSH0 PUSH1 0x20 DUP3 ADD SWAP1 POP PUSH2 0x672 PUSH0 DUP4 ADD DUP5 PUSH2 0x650 JUMP JUMPDEST SWAP3 SWAP2 POP POP JUMP JUMPDEST PUSH0 DUP1 REVERT JUMPDEST PUSH0 DUP1 REVERT JUMPDEST PUSH0 PUSH1 0x1F NOT PUSH1 0x1F DUP4 ADD AND SWAP1 POP SWAP2 SWAP1 POP JUMP JUMPDEST PUSH32 0x4E487B7100000000000000000000000000000000000000000000000000000000 PUSH0 MSTORE PUSH1 0x41 PUSH1 0x4 MSTORE PUSH1 0x24 PUSH0 REVERT JUMPDEST PUSH2 0x6C6 DUP3 PUSH2 0x680 JUMP JUMPDEST DUP2 ADD DUP2 DUP2 LT PUSH8 0xFFFFFFFFFFFFFFFF DUP3 GT OR ISZERO PUSH2 0x6E5 JUMPI PUSH2 0x6E4 PUSH2 0x690 JUMP JUMPDEST JUMPDEST DUP1 PUSH1 0x40 MSTORE POP POP POP JUMP JUMPDEST PUSH0 PUSH2 0x6F7 PUSH2 0x5AF JUMP JUMPDEST SWAP1 POP PUSH2 0x703 DUP3 DUP3 PUSH2 0x6BD JUMP JUMPDEST SWAP2 SWAP1 POP JUMP JUMPDEST PUSH0 PUSH8 0xFFFFFFFFFFFFFFFF DUP3 GT ISZERO PUSH2 0x722 JUMPI PUSH2 0x721 PUSH2 0x690 JUMP JUMPDEST JUMPDEST PUSH2 0x72B DUP3 PUSH2 0x680 JUMP JUMPDEST SWAP1 POP PUSH1 0x20 DUP2 ADD SWAP1 POP SWAP2 SWAP1 POP JUMP JUMPDEST DUP3 DUP2 DUP4 CALLDATACOPY PUSH0 DUP4 DUP4 ADD MSTORE POP POP POP JUMP JUMPDEST PUSH0 PUSH2 0x758 PUSH2 0x753 DUP5 PUSH2 0x708 JUMP JUMPDEST PUSH2 0x6EE JUMP JUMPDEST SWAP1 POP DUP3 DUP2 MSTORE PUSH1 0x20 DUP2 ADD DUP5 DUP5 DUP5 ADD GT ISZERO PUSH2 0x774 JUMPI PUSH2 0x773 PUSH2 0x67C JUMP JUMPDEST JUMPDEST PUSH2 0x77F DUP5 DUP3 DUP6 PUSH2 0x738 JUMP JUMPDEST POP SWAP4 SWAP3 POP POP POP JUMP JUMPDEST PUSH0 DUP3 PUSH1 0x1F DUP4 ADD SLT PUSH2 0x79B JUMPI PUSH2 0x79A PUSH2 0x678 JUMP JUMPDEST JUMPDEST DUP2 CALLDATALOAD PUSH2 0x7AB DUP5 DUP3 PUSH1 0x20 DUP7 ADD PUSH2 0x746 JUMP JUMPDEST SWAP2 POP POP SWAP3 SWAP2 POP POP JUMP JUMPDEST PUSH0 PUSH1 0xFF DUP3 AND SWAP1 POP SWAP2 SWAP1 POP JUMP JUMPDEST PUSH2 0x7C9 DUP2 PUSH2 0x7B4 JUMP JUMPDEST DUP2 EQ PUSH2 0x7D3 JUMPI PUSH0 DUP1 REVERT JUMPDEST POP JUMP JUMPDEST PUSH0 DUP2 CALLDATALOAD SWAP1 POP PUSH2 0x7E4 DUP2 PUSH2 0x7C0 JUMP JUMPDEST SWAP3 SWAP2 POP POP JUMP JUMPDEST PUSH0 DUP1 PUSH1 0x40 DUP4 DUP6 SUB SLT ISZERO PUSH2 0x800 JUMPI PUSH2 0x7FF PUSH2 0x5B8 JUMP JUMPDEST JUMPDEST PUSH0 DUP4 ADD CALLDATALOAD PUSH8 0xFFFFFFFFFFFFFFFF DUP2 GT ISZERO PUSH2 0x81D JUMPI PUSH2 0x81C PUSH2 0x5BC JUMP JUMPDEST JUMPDEST PUSH2 0x829 DUP6 DUP3 DUP7 ADD PUSH2 0x787 JUMP JUMPDEST SWAP3 POP POP PUSH1 0x20 PUSH2 0x83A DUP6 DUP3 DUP7 ADD PUSH2 0x7D6 JUMP JUMPDEST SWAP2 POP POP SWAP3 POP SWAP3 SWAP1 POP JUMP JUMPDEST PUSH32 0x4E487B7100000000000000000000000000000000000000000000000000000000 PUSH0 MSTORE PUSH1 0x21 PUSH1 0x4 MSTORE PUSH1 0x24 PUSH0 REVERT JUMPDEST PUSH1 0x3 DUP2 LT PUSH2 0x882 JUMPI PUSH2 0x881 PUSH2 0x844 JUMP JUMPDEST JUMPDEST POP JUMP JUMPDEST PUSH0 DUP2 SWAP1 POP PUSH2 0x892 DUP3 PUSH2 0x871 JUMP JUMPDEST SWAP2 SWAP1 POP JUMP JUMPDEST PUSH0 PUSH2 0x8A1 DUP3 PUSH2 0x885 JUMP JUMPDEST SWAP1 POP SWAP2 SWAP1 POP JUMP JUMPDEST PUSH2 0x8B1 DUP2 PUSH2 0x897 JUMP JUMPDEST DUP3 MSTORE POP POP JUMP JUMPDEST PUSH0 PUSH1 0x20 DUP3 ADD SWAP1 POP PUSH2 0x8CA PUSH0 DUP4 ADD DUP5 PUSH2 0x8A8 JUMP JUMPDEST SWAP3 SWAP2 POP POP JUMP JUMPDEST PUSH2 0x8D9 DUP2 PUSH2 0x5DF JUMP JUMPDEST DUP3 MSTORE POP POP JUMP JUMPDEST PUSH0 DUP2 MLOAD SWAP1 POP SWAP2 SWAP1 POP JUMP JUMPDEST PUSH0 DUP3 DUP3 MSTORE PUSH1 0x20 DUP3 ADD SWAP1 POP SWAP3 SWAP2 POP POP JUMP JUMPDEST DUP3 DUP2 DUP4 MCOPY PUSH0 DUP4 DUP4 ADD MSTORE POP POP POP JUMP JUMPDEST PUSH0 PUSH2 0x911 DUP3 PUSH2 0x8DF JUMP JUMPDEST PUSH2 0x91B DUP2 DUP6 PUSH2 0x8E9 JUMP JUMPDEST SWAP4 POP PUSH2 0x92B DUP2 DUP6 PUSH1 0x20 DUP7 ADD PUSH2 0x8F9 JUMP JUMPDEST PUSH2 0x934 DUP2 PUSH2 0x680 JUMP JUMPDEST DUP5 ADD SWAP2 POP POP SWAP3 SWAP2 POP POP JUMP JUMPDEST PUSH0 PUSH1 0x80 DUP3 ADD SWAP1 POP PUSH2 0x952 PUSH0 DUP4 ADD DUP8 PUSH2 0x8D0 JUMP JUMPDEST DUP2 DUP2 SUB PUSH1 0x20 DUP4 ADD MSTORE PUSH2 0x964 DUP2 DUP7 PUSH2 0x907 JUMP JUMPDEST SWAP1 POP PUSH2 0x973 PUSH1 0x40 DUP4 ADD DUP6 PUSH2 0x8A8 JUMP JUMPDEST PUSH2 0x980 PUSH1 0x60 DUP4 ADD DUP5 PUSH2 0x650 JUMP JUMPDEST SWAP6 SWAP5 POP POP POP POP POP JUMP JUMPDEST PUSH32 0x496E76616C696420757365722074797065000000000000000000000000000000 PUSH0 DUP3 ADD MSTORE POP JUMP JUMPDEST PUSH0 PUSH2 0x9BD PUSH1 0x11 DUP4 PUSH2 0x8E9 JUMP JUMPDEST SWAP2 POP PUSH2 0x9C8 DUP3 PUSH2 0x989 JUMP JUMPDEST PUSH1 0x20 DUP3 ADD SWAP1 POP SWAP2 SWAP1 POP JUMP JUMPDEST PUSH0 PUSH1 0x20 DUP3 ADD SWAP1 POP DUP2 DUP2 SUB PUSH0 DUP4 ADD MSTORE PUSH2 0x9EA DUP2 PUSH2 0x9B1 JUMP JUMPDEST SWAP1 POP SWAP2 SWAP1 POP JUMP JUMPDEST PUSH32 0x5573657220616C72656164792072656769737465726564000000000000000000 PUSH0 DUP3 ADD MSTORE POP JUMP JUMPDEST PUSH0 PUSH2 0xA25 PUSH1 0x17 DUP4 PUSH2 0x8E9 JUMP JUMPDEST SWAP2 POP PUSH2 0xA30 DUP3 PUSH2 0x9F1 JUMP JUMPDEST PUSH1 0x20 DUP3 ADD SWAP1 POP SWAP2 SWAP1 POP JUMP JUMPDEST PUSH0 PUSH1 0x20 DUP3 ADD SWAP1 POP DUP2 DUP2 SUB PUSH0 DUP4 ADD MSTORE PUSH2 0xA52 DUP2 PUSH2 0xA19 JUMP JUMPDEST SWAP1 POP SWAP2 SWAP1 POP JUMP JUMPDEST PUSH32 0x4E487B7100000000000000000000000000000000000000000000000000000000 PUSH0 MSTORE PUSH1 0x22 PUSH1 0x4 MSTORE PUSH1 0x24 PUSH0 REVERT JUMPDEST PUSH0 PUSH1 0x2 DUP3 DIV SWAP1 POP PUSH1 0x1 DUP3 AND DUP1 PUSH2 0xA9D JUMPI PUSH1 0x7F DUP3 AND SWAP2 POP JUMPDEST PUSH1 0x20 DUP3 LT DUP2 SUB PUSH2 0xAB0 JUMPI PUSH2 0xAAF PUSH2 0xA59 JUMP JUMPDEST JUMPDEST POP SWAP2 SWAP1 POP JUMP JUMPDEST PUSH0 DUP2 SWAP1 POP DUP2 PUSH0 MSTORE PUSH1 0x20 PUSH0 KECCAK256 SWAP1 POP SWAP2 SWAP1 POP JUMP JUMPDEST PUSH0 PUSH1 0x20 PUSH1 0x1F DUP4 ADD DIV SWAP1 POP SWAP2 SWAP1 POP JUMP JUMPDEST PUSH0 DUP3 DUP3 SHL SWAP1 POP SWAP3 SWAP2 POP POP JUMP JUMPDEST PUSH0 PUSH1 0x8 DUP4 MUL PUSH2 0xB12 PUSH32 0xFFFFFFFFFFFFFFFFFFFFFFFFFFFFFFFFFFFFFFFFFFFFFFFFFFFFFFFFFFFFFFFF DUP3 PUSH2 0xAD7 JUMP JUMPDEST PUSH2 0xB1C DUP7 DUP4 PUSH2 0xAD7 JUMP JUMPDEST SWAP6 POP DUP1 NOT DUP5 AND SWAP4 POP DUP1 DUP7 AND DUP5 OR SWAP3 POP POP POP SWAP4 SWAP3 POP POP POP JUMP JUMPDEST PUSH0 DUP2 SWAP1 POP SWAP2 SWAP1 POP JUMP JUMPDEST PUSH0 DUP2 SWAP1 POP SWAP2 SWAP1 POP JUMP JUMPDEST PUSH0 PUSH2 0xB60 PUSH2 0xB5B PUSH2 0xB56 DUP5 PUSH2 0xB34 JUMP JUMPDEST PUSH2 0xB3D JUMP JUMPDEST PUSH2 0xB34 JUMP JUMPDEST SWAP1 POP SWAP2 SWAP1 POP JUMP JUMPDEST PUSH0 DUP2 SWAP1 POP SWAP2 SWAP1 POP JUMP JUMPDEST PUSH2 0xB79 DUP4 PUSH2 0xB46 JUMP JUMPDEST PUSH2 0xB8D PUSH2 0xB85 DUP3 PUSH2 0xB67 JUMP JUMPDEST DUP5 DUP5 SLOAD PUSH2 0xAE3 JUMP JUMPDEST DUP3 SSTORE POP POP POP POP JUMP JUMPDEST PUSH0 SWAP1 JUMP JUMPDEST PUSH2 0xBA1 PUSH2 0xB95 JUMP JUMPDEST PUSH2 0xBAC DUP2 DUP5 DUP5 PUSH2 0xB70 JUMP JUMPDEST POP POP POP JUMP JUMPDEST JUMPDEST DUP2 DUP2 LT ISZERO PUSH2 0xBCF JUMPI PUSH2 0xBC4 PUSH0 DUP3 PUSH2 0xB99 JUMP JUMPDEST PUSH1 0x1 DUP2 ADD SWAP1 POP PUSH2 0xBB2 JUMP JUMPDEST POP POP JUMP JUMPDEST PUSH1 0x1F DUP3 GT ISZERO PUSH2 0xC14 JUMPI PUSH2 0xBE5 DUP2 PUSH2 0xAB6 JUMP JUMPDEST PUSH2 0xBEE DUP5 PUSH2 0xAC8 JUMP JUMPDEST DUP2 ADD PUSH1 0x20 DUP6 LT ISZERO PUSH2 0xBFD JUMPI DUP2 SWAP1 POP JUMPDEST PUSH2 0xC11 PUSH2 0xC09 DUP6 PUSH2 0xAC8 JUMP JUMPDEST DUP4 ADD DUP3 PUSH2 0xBB1 JUMP JUMPDEST POP POP JUMPDEST POP POP POP JUMP JUMPDEST PUSH0 DUP3 DUP3 SHR SWAP1 POP SWAP3 SWAP2 POP POP JUMP JUMPDEST PUSH0 PUSH2 0xC34 PUSH0 NOT DUP5 PUSH1 0x8 MUL PUSH2 0xC19 JUMP JUMPDEST NOT DUP1 DUP4 AND SWAP2 POP POP SWAP3 SWAP2 POP POP JUMP JUMPDEST PUSH0 PUSH2 0xC4C DUP4 DUP4 PUSH2 0xC25 JUMP JUMPDEST SWAP2 POP DUP3 PUSH1 0x2 MUL DUP3 OR SWAP1 POP SWAP3 SWAP2 POP POP JUMP JUMPDEST PUSH2 0xC65 DUP3 PUSH2 0x8DF JUMP JUMPDEST PUSH8 0xFFFFFFFFFFFFFFFF DUP2 GT ISZERO PUSH2 0xC7E JUMPI PUSH2 0xC7D PUSH2 0x690 JUMP JUMPDEST JUMPDEST PUSH2 0xC88 DUP3 SLOAD PUSH2 0xA86 JUMP JUMPDEST PUSH2 0xC93 DUP3 DUP3 DUP6 PUSH2 0xBD3 JUMP JUMPDEST PUSH0 PUSH1 0x20 SWAP1 POP PUSH1 0x1F DUP4 GT PUSH1 0x1 DUP2 EQ PUSH2 0xCC4 JUMPI PUSH0 DUP5 ISZERO PUSH2 0xCB2 JUMPI DUP3 DUP8 ADD MLOAD SWAP1 POP JUMPDEST PUSH2 0xCBC DUP6 DUP3 PUSH2 0xC41 JUMP JUMPDEST DUP7 SSTORE POP PUSH2 0xD23 JUMP JUMPDEST PUSH1 0x1F NOT DUP5 AND PUSH2 0xCD2 DUP7 PUSH2 0xAB6 JUMP JUMPDEST PUSH0 JUMPDEST DUP3 DUP2 LT ISZERO PUSH2 0xCF9 JUMPI DUP5 DUP10 ADD MLOAD DUP3 SSTORE PUSH1 0x1 DUP3 ADD SWAP2 POP PUSH1 0x20 DUP6 ADD SWAP5 POP PUSH1 0x20 DUP2 ADD SWAP1 POP PUSH2 0xCD4 JUMP JUMPDEST DUP7 DUP4 LT ISZERO PUSH2 0xD16 JUMPI DUP5 DUP10 ADD MLOAD PUSH2 0xD12 PUSH1 0x1F DUP10 AND DUP3 PUSH2 0xC25 JUMP JUMPDEST DUP4 SSTORE POP JUMPDEST PUSH1 0x1 PUSH1 0x2 DUP9 MUL ADD DUP9 SSTORE POP POP POP JUMPDEST POP POP POP POP POP POP JUMP JUMPDEST PUSH0 PUSH1 0x40 DUP3 ADD SWAP1 POP DUP2 DUP2 SUB PUSH0 DUP4 ADD MSTORE PUSH2 0xD43 DUP2 DUP6 PUSH2 0x907 JUMP JUMPDEST SWAP1 POP PUSH2 0xD52 PUSH1 0x20 DUP4 ADD DUP5 PUSH2 0x8A8 JUMP JUMPDEST SWAP4 SWAP3 POP POP POP JUMP JUMPDEST PUSH32 0x55736572206E6F74207265676973746572656400000000000000000000000000 PUSH0 DUP3 ADD MSTORE POP JUMP JUMPDEST PUSH0 PUSH2 0xD8D PUSH1 0x13 DUP4 PUSH2 0x8E9 JUMP JUMPDEST SWAP2 POP PUSH2 0xD98 DUP3 PUSH2 0xD59 JUMP JUMPDEST PUSH1 0x20 DUP3 ADD SWAP1 POP SWAP2 SWAP1 POP JUMP JUMPDEST PUSH0 PUSH1 0x20 DUP3 ADD SWAP1 POP DUP2 DUP2 SUB PUSH0 DUP4 ADD MSTORE PUSH2 0xDBA DUP2 PUSH2 0xD81 JUMP JUMPDEST SWAP1 POP SWAP2 SWAP1 POP JUMP INVALID LOG2 PUSH5 0x6970667358 0x22 SLT KECCAK256 CALL DUP14 LT ADDRESS LOG2 0xDB PUSH30 0xFA71D332E309D6B47EF1CE79AF09C8101517EC5DE5C9C0E65664736F6C63 NUMBER STOP ADDMOD BYTE STOP CALLER "
				},
				"gasEstimates": {
					"creation": {
						"codeDepositCost": "715000",
						"executionCost": "745",
						"totalCost": "715745"
					},
					"external": {
						"getUserType(address)": "5283",
						"isUserRegistered(address)": "2905",
						"registerUser(string,uint8)": "infinite",
						"users(address)": "infinite"
					}
				},
				"methodIdentifiers": {
					"getUserType(address)": "8b3f863f",
					"isUserRegistered(address)": "163f7522",
					"registerUser(string,uint8)": "338e12eb",
					"users(address)": "a87430ba"
				}
			},
			"storageLayout": {
				"storage": [
					{
						"astId": 20,
						"contract": "PROJECT/UserRegistry.sol:UserRegistry",
						"label": "users",
						"offset": 0,
						"slot": "0",
						"type": "t_mapping(t_address,t_struct(User)15_storage)"
					}
				],
				"types": {
					"t_address": {
						"encoding": "inplace",
						"label": "address",
						"numberOfBytes": "20"
					},
					"t_bool": {
						"encoding": "inplace",
						"label": "bool",
						"numberOfBytes": "1"
					},
					"t_enum(UserType)5": {
						"encoding": "inplace",
						"label": "enum UserRegistry.UserType",
						"numberOfBytes": "1"
					},
					"t_mapping(t_address,t_struct(User)15_storage)": {
						"encoding": "mapping",
						"key": "t_address",
						"label": "mapping(address => struct UserRegistry.User)",
						"numberOfBytes": "32",
						"value": "t_struct(User)15_storage"
					},
					"t_string_storage": {
						"encoding": "bytes",
						"label": "string",
						"numberOfBytes": "32"
					},
					"t_struct(User)15_storage": {
						"encoding": "inplace",
						"label": "struct UserRegistry.User",
						"members": [
							{
								"astId": 7,
								"contract": "PROJECT/UserRegistry.sol:UserRegistry",
								"label": "userAddress",
								"offset": 0,
								"slot": "0",
								"type": "t_address"
							},
							{
								"astId": 9,
								"contract": "PROJECT/UserRegistry.sol:UserRegistry",
								"label": "name",
								"offset": 0,
								"slot": "1",
								"type": "t_string_storage"
							},
							{
								"astId": 12,
								"contract": "PROJECT/UserRegistry.sol:UserRegistry",
								"label": "userType",
								"offset": 0,
								"slot": "2",
								"type": "t_enum(UserType)5"
							},
							{
								"astId": 14,
								"contract": "PROJECT/UserRegistry.sol:UserRegistry",
								"label": "isRegistered",
								"offset": 1,
								"slot": "2",
								"type": "t_bool"
							}
						],
						"numberOfBytes": "96"
					}
				}
			},
			"userdoc": {
				"kind": "user",
				"methods": {},
				"version": 1
			}
		}
	}
}